:0200000490006A
:10000000000004201D050090AF070090B10700908C
:10001000B3070090B5070090B707009000000000FC
:100020000000000000000000000000006D050090CE
:10003000B9070090000000006D050090BD0700901A
:100040006D0500906D0500906D0500906D050090A8
:100050006D0500906D0500906D0500906D05009098
:100060006D0500906D0500906D0500906D05009088
:100070006D0500906D0500906D0500906D05009078
:100080006D0500906D0500906D0500906D05009068
:100090006D0500906D0500906D0500906D05009058
:1000A0006D0500906D0500906D0500906D05009048
:1000B0006D050090D10700906D0500906D050090D2
:1000C0006D0500906D0500906D0500906D05009028
:1000D0006D0500906D0500906D0500906D05009018
:1000E0006D0500906D0500906D0500906D05009008
:1000F0006D0500906D0500906D0500906D050090F8
:100100006D0500906D0500906D0500906D050090E7
:100110006D0500906D0500906D0500906D050090D7
:100120006D0500906D0500906D0500906D050090C7
:100130006D050090000000000000000000000000BD
:100140000000000000000000000000006D050090AD
:100150006D0500906D0500906D0500906D05009097
:100160006D0500906D0500906D0500906D05009087
:100170006D0500906D050090000000006D05009079
:100180006D0500906D0500906D0500906D05009067
:100190006D0500906D050090000000006D05009059
:1001A0000000000000000000000000006D0500904D
:1001B0006D0500906D05009000000000000000003B
:1001C000000000000000000000000000000000002F
:1001D0000000000000000000000000006D0500901D
:1001E00010B5054C237833B9044B13B10448AFF371
:1001F00000800123237010BDC40000200000000017
:100200001C74009008B5034B1BB103490348AFF3BE
:10021000008008BD00000000C80000201C74009091
:1002200053B94AB9002908BF00281CBF4FF0FF315D
:100230004FF0FF3000F070B9ADF1080C6DE904CE5D
:1002400000F006F8DDF804E0DDE9022304B07047B1
:100250002DE9F047089E0D4604460F46002B4AD173
:100260008A42944665D9B2FA82F343B102FA03FC9A
:10027000C3F120029F4020FA02F217439C404FEA4C
:100280001C4E1FFA8CF5B7FBFEF1220C0EFB11770A
:1002900042EA074201FB05F090420AD91CEB020238
:1002A00001F1FF3780F01C81904240F21981023940
:1002B0006244121AA4B2B2FBFEF00EFB102244EA12
:1002C000024400FB05F5A5420AD91CEB040400F129
:1002D000FF3280F00781A54240F204816444023875
:1002E00040EA0140641B00211EB1DC400023C6E946
:1002F0000043BDE8F0878B4208D9002E00F0ED8066
:100300000021C6E900050846BDE8F087B3FA83F18D
:10031000002949D1AB4202D3824200F2F880841A0C
:1003200065EB030201201746002EE2D0C6E9004724
:10033000DFE702B9FFDEB2FA82F3002B40F09080D3
:100340008A1A4FEA1C471FFA8CFE0121B2FBF7F50F
:1003500007FB1520220C42EA00420EFB05F09042FA
:1003600008D91CEB020205F1FF3802D2904200F2DC
:10037000CB804546121AA4B2B2FBF7F007FB10225D
:1003800044EA02440EFB00FEA64508D91CEB040417
:1003900000F1FF3202D2A64500F2BB801046A4EB6A
:1003A0000E0440EA05409FE7C1F120078B4022FA86
:1003B00007FC4CEA030C05FA01F420FA07F3FD40B0
:1003C0004FEA1C492343B5FBF9F81FFA8CFE09FBE1
:1003D00018551C0C44EA054408FB0EF5A54202FA28
:1003E00001F200FA01F00BD91CEB040408F1FF3A0A
:1003F00080F08880A54240F28580A8F1020864441C
:10040000641B9DB2B4FBF9F309FB134445EA0444B1
:1004100003FB0EFEA64508D91CEB040403F1FF35CF
:100420006CD2A6456AD9023B644443EA0843A3FB65
:100430000295A4EB0E04AC42C846AE4656D353D048
:1004400056B1B0EB080264EB0E0404FA07F7CA4099
:10045000CC401743C6E9007418460021BDE8F08778
:10046000C3F1200102FA03FC20FA01F225FA01F19E
:100470009D402A434FEA1C471FFA8CFEB1FBF7F060
:1004800007FB1015110C41EA054100FB0EF58D42EA
:1004900004FA03F408D91CEB010100F1FF382FD254
:1004A0008D422DD902386144491B92B2B1FBF7F558
:1004B00007FB151142EA014205FB0EF1914208D9F2
:1004C0001CEB020205F1FF3816D2914214D9023D0D
:1004D0006244521A45EA004138E73146304608E79F
:1004E0003946E6E61046FBE64845A9D2B9EB0208D4
:1004F00065EB0C0E013BA3E74546EAE72B4694E784
:100500004046D1E7D0467BE7023D624432E70846E9
:100510000AE76444023842E7704700BFDFF834D08E
:10052000002103E00C4B5B58435004310B480C4B4B
:1005300042189A42F6D30B4A02E0002342F8043BE9
:10054000094B9A42F9D300F02BFD06F035FF00F07D
:100550002BF8704700000420A4DE0090000000206B
:10056000C4000020C4000020A45C0220FEE70000BC
:1005700008B502F03BF90A4802F07AF803F09EF859
:10058000044603F0A3F8143800EBD072A4F1640021
:1005900000EBD07052104110024802F08DFBFEE7D4
:1005A00060B5009084DE009080B594B04FF0C847ED
:1005B00000F0DCFD40F2014308A8ADF82030624BAA
:1005C000CDE90973614B0B9300F0EEFD042000F0C0
:1005D000DBFDBFF34F8FBFF36F8F5D4A0021C2F881
:1005E0005012BFF34F8FBFF36F8F536943F4003343
:1005F0005361BFF34F8FBFF36F8FC2F88410BFF307
:100600004F8FD2F8803043F6E074C3F3C900C3F3D0
:100610004E335B0103EA0406014646EA817501395F
:10062000C2F86052F9D2203B13F1200FF2D1BFF390
:100630004F8F536943F480335361BFF34F8FBFF340
:100640006F8F444D00F0F6FC012702242B6C192615
:1006500008A843F080532B642B6C03F08053019364
:10066000019B3D4B1A6842F440421A601B68129489
:1006700003F440430293029B4FF48033CDE90873A7
:100680004FF48003CDE90E434FF4D873CDE91063E6
:100690000923139300F0D0FE18B1322000F0EEFCD5
:1006A000FBE700F091FE18B1322000F0E7FCFBE719
:1006B0000F2305904FF4A0500721CDE903344FF4E8
:1006C0008053CDE9060303A801F09EF8064618B151
:1006D000322000F0D3FCFBE700F0DAFA1F4B44F6BF
:1006E00020621F4C1B686661E660E661261DB3FB55
:1006F000F2F31C4A013B3046626040F2F312236081
:100700002261A36001F0A4FA00B1FEE7304601F0D7
:1007100047F900B1FEE700F0BBFA384600F0B8FA3E
:100720002B6B43F480532B632B6B03F480530893A0
:10073000089B02F0B7F8042084F8507006F01AF90C
:10074000FFF716FFFEE700BF1200000300010101E2
:1007500000ED00E0003802400070004084000020FE
:10076000E0000020000400400A4B07B51A6C00218D
:100770001D2042F002021A6401221B6C03F00203E6
:100780000193019B00F09EFC1D2003B05DF804EB7B
:1007900000F0CABC00380240002008B500F0A8FAFA
:1007A0000120BDE8084000F0A3BAFFF7F5BF70478D
:1007B000FEE7FEE7FEE7FEE77047000008B500F041
:1007C0004BFC024A13680133136008BD4C590220E8
:1007D000014801F027B900BFE4000020F020704775
:1007E000EF2830B594BF054600250E4CEF29258033
:1007F00094BF0D46002565801418F02CD6BF02F179
:10080000FF32EF208018084AD8BF80B210805818F5
:10081000F028D7BF03F1FF33EF21C91889B2518007
:1008200030BD00BF3201002000000020F0207047E2
:1008300038B50C46154600F007FB2544AC4200D104
:1008400038BD14F8010B00F0F7FAF7E7012813B5EB
:1008500004461ED002281ED1104B062269463320C2
:1008600000930023ADF80430FFF7E2FF4FF4A043FC
:10087000224669463720ADF80030FFF7D9FFC02384
:100880000122694636208DF80030FFF7D1FF02B013
:1008900010BD0023F4E76023F2E700BF000001F081
:1008A00000222920114608B5FFF7C2FF00221120BF
:1008B0001146BDE80840FFF7BBBF00007FB500F060
:1008C00021FA00221020002411460525FFF7B0FF71
:1008D0000A2000F0C6FA002201204FF06F461146B0
:1008E000FFF7A6FFC82000F0BCFA00221120114635
:1008F000FFF79EFF782000F0B4FA69460122362007
:100900008DF80040FFF794FF694601223A208DF8E8
:100910000050FFF78DFF224621462120FFF788FF78
:10092000694604222A200096FFF782FF69460422C6
:100930002B200096FFF77CFF3B4B2A46694600932D
:1009400033233525B2208DF80430FFF771FF694657
:100950000122B7208DF80050FFF76AFF1F23694678
:100960000122BB208DF80030FFF762FF2C2369467F
:100970000122C0208DF80030FFF75AFF4CF20133FE
:1009800069460222C220ADF80030FFF751FF202354
:1009900069460122C4208DF80030FFF749FF0F237C
:1009A00069460122C6208DF80030FFF741FF4AF268
:1009B000A41369460122D020ADF80030FFF738FFBC
:1009C0001A4B69460E22009303F12C53E02003F5E5
:1009D000201303F63C430193A3F1F953A3F5BB2382
:1009E000A3F2BC63029342F62953ADF80C30FFF733
:1009F0001FFF0F4A69460F4BE120CDE900230E4B44
:100A00000E22029343F22F13ADF80C30FFF710FFC4
:100A1000FFF746FF0122694628468DF80040FFF7A0
:100A200007FF04B070BD00BF0C0C0033D0081108E4
:100A3000D008100806063944510B1614FE2307B5DA
:100A4000012201A9BD208DF80430FFF7F1FE00223C
:100A500010201146FFF7ECFE0A2000F002FA03B066
:100A60005DF804FB37B5C0B2042200250C468DF8B2
:100A7000050011380DEB02018DF804508DF80700C8
:100A80002A208DF80650FFF7D3FEE1B204222B2076
:100A90008DF804508DF8051011398DF806508DF839
:100AA00007100DEB0201FFF7C3FE03B030BD10B518
:100AB0001446FFF7D7FF00222C201146FFF7B8FE9F
:100AC0002046BDE8104000F0B7B938B504460D46E1
:100AD000FFF7C8FF29462046FFF7C4FF00222E205B
:100AE0001146FFF7A5FE00F0B7F900F0B5F904468E
:100AF00000F0B2F9C0F3C423C4F3850204F47844CF
:100B000003EB4213181980B238BD70B5064608468B
:100B100011461C46FFF7A6FF002200252C20114697
:100B2000FFF786FEA54200D170BD3046013500F0CA
:100B300083F9F7E7F8B514461D460E4607461146F9
:100B400025443046FFF78EFF0022ADB22C2011461F
:100B5000FFF76EFEAC4200D1F8BD214601343A46A3
:100B60003046A4B2FFF7A3FFF4E700002DE9F047F9
:100B700004461546002200272544DFF84890DFF898
:100B800048A00E462C2011469846FFF751FEA5427C
:100B900001D8BDE8F087B9F80030A34210D8B9F801
:100BA0000230B3420CD8BAF80030A34208D3BAF8E6
:100BB0000230B34204D338F81700013700F03CF993
:100BC0000134E4E732010020000000202DE9F74362
:100BD000074616480E46164905880B880135448895
:100BE0004988ED1A5388938801345389ADB2B2F81D
:100BF0000CC0641A9BB216FA84F44FEA450943EA22
:100C00000C4302EB0308A64202D303B0BDE8F08315
:100C1000013C3846A1B20191FFF724FF43462A4622
:100C200001993846C844FFF7A1FFECE70000002017
:100C3000320100202DE9F743DDF8288005461646ED
:100C40000C464FEA4209CF18A74202D803B0BDE8CC
:100C5000F083A1B2284601340191FFF703FF434618
:100C6000324601992846C844FFF780FFECE708B5F3
:100C700000F0EAF800F0F0F800F0EEF8C0B208BDBD
:100C800008B500F03FF80420FFF7F1FF80B208BD7F
:100C900000B589B0D8B9144B1A6B42F001021A633F
:100CA0001B6B03F001030193019B104B03A953F845
:100CB000202003EB8003039201229868CDE90422EF
:100CC0000322069200F09CFA09B05DF804FB0128AB
:100CD000EBD1054B1A6B42F002021A631B6B03F057
:100CE00002030293029BE0E7003802403C00002030
:100CF000034B03EB800233F82010906800F05BBBDD
:100D00003C000020474B48489A6B42F0010230B546
:100D10009A63A1B09A6B022401250DA902F0010289
:100D20000092009A9A6B42F001029A639A6B02F069
:100D300001020192019A9A6942F001029A619A694C
:100D400022F001029A611A6B42F008021A631A6BD0
:100D500002F008020292029A1A6B42F010021A6321
:100D60001A6B02F010020392039A1A6B42F02002EF
:100D70001A631A6B02F020020492049A1A6B42F072
:100D800040021A6303221B6B03F040030593059B8B
:100D90000C23CDE910234DF6B373CDE90E450D9329
:100DA00000F02EFA4FF683730DA920480D9300F042
:100DB00027FA4FF23F030DA91D480D9300F020FACA
:100DC00040F23F230DA91B480D9300F019FA4FF094
:100DD000204310220DA80D9303F58273CDE90E3444
:100DE0000023CDE912234FF480521A931B930C93E6
:100DF000CDE916234FF40012CDE91C230922CDE9D9
:100E000006240622CDE9082506AA1146CDE91033AD
:100E1000CDE91433CDE91833CDE90A4400F093FD50
:100E200021B030BD00380240000C024000100240EA
:100E300000140240001802404FF0C8435880BFF32E
:100E40004F8FBFF34F8F70474FF0C8431880BFF3E9
:100E50004F8FBFF34F8F70474FF0C843588880B211
:100E6000704700F00BB90000214B1A6B42F0800272
:100E7000F0B51A6389B01A6B00241E4D802702F06A
:100E80008002012603A928460092009A1A6B42F0BC
:100E900004021A631A6B02F004020192019A1A6B9F
:100EA00042F080021A631B6B039703F080030496E1
:100EB0000293029B0223CDE9054300F0A1F92246EB
:100EC0003946284600F072FA4FF4807303A90A48A5
:100ED000CDE9033400F094F94FF4006303A92846E8
:100EE0000694CDE9033600F08BF909B0F0BD00BFE0
:100EF00000380240001C02400008024070B54FF666
:100F0000FF73224D00260446AB60214B6E60EB6000
:100F1000FFF7AAFF01224FF400611E4800F046FAD5
:100F2000324680211B4800F041FA052000F0A6F867
:100F300001228021174800F039FA0A2000F09EF8BB
:100F400032468021134800F031FA142000F096F860
:100F5000114E012280210F4800F028FA0A2000F0EB
:100F60008DF87368984785280DD133682E609847AF
:100F70001CB92046FFF76AFC01E0022CF9D0074BB0
:100F80000020EB6070BD0120FCE700BF38010020AD
:100F900064000020001C0240040000205C000020CF
:100FA0000F490020D1F8883043F47003C1F888302D
:100FB0000C4B1A6842F001021A6098601A6822F01D
:100FC000847222F480321A60074A5A601A6822F446
:100FD00080221A60D8604FF010438B60704700BFCA
:100FE00000ED00E00038024010300024704700009F
:100FF00070B50E4E4FF47A7305463278B3FBF2F3B8
:101000000B4A1068B0FBF3F000F09CF8044650B9AE
:101010000F2D08D8024629464FF0FF3000F052F855
:101020002046756070BD0120FCE700BF88000020ED
:1010300084000020074A032008B5136843F40073B6
:10104000136000F02DF80F20FFF7D2FFFFF7CEFF5F
:10105000002008BD003C0240034A044B11681B7885
:101060000B441360704700BF480100208800002037
:10107000014B1868704700BF4801002038B504468E
:10108000FFF7F6FF0546631C1EBF044B1B78E418F0
:10109000FFF7EEFF431BA342FAD338BD88000020C0
:1010A00007490302CA6803F4E06322F4E062120411
:1010B000120C134343F0BF6343F40033CB6070471B
:1010C00000ED00E0164B30B5DC68C4F30224C4F137
:1010D0000703251D042B28BF0423062D4FF0FF35E1
:1010E0008CBF033C002405FA03F3002805FA04F53D
:1010F00021EA030322EA050203FA04F343EA0203A6
:101100004FEA0313DBB206DB00F1604000F56140FB
:1011100080F8003330BD00F00F00024A1354F9E7A5
:1011200000ED00E014ED00E0002807DB4109012399
:1011300000F01F00024A834042F82130704700BF90
:1011400000E100E00138B0F1807F0BD24FF0E023E6
:10115000054AF0215861002082F823100722986187
:101160001A6170470120704700ED00E0BFF35F8F08
:10117000044B5A6A22F480325A620022C3F8942047
:10118000704700BF00ED00E0064B40F00100C3F8DF
:1011900094005A6A42F480325A62BFF34F8FBFF311
:1011A0006F8F704700ED00E04378144A10B5C2F825
:1011B00098300178E9B14368C2F89C30C37A047B67
:1011C0001B0643EA04730B43817A43EAC143417B24
:1011D00043EA8143817B43EA4143C17B43EA0143C4
:1011E000417A43EA0123017A43EA4103C2F8A0307D
:1011F00010BDC2F89C10C2F8A010F9E700ED00E0A5
:101200002DE9F74F0023DFF8A091654A01240D680E
:101210009C4004EA050CAC4340F0AC804D684FEABA
:101220004308032605F0030406FA08F6671EF64392
:10123000012F34D8876807EA060ECF6807FA08F747
:1012400047EA0E078760476827EA0C0EC5F30017C8
:101250009F4047EA0E074760C768022C07EA060E60
:101260008F6807FA08F747EA0E07C76019D14FEAF7
:10127000D30A03F0070B4FF00F0E00EB8A0A4FEA78
:101280008B0BDAF820700EFA0BFE27EA0E0E0F69B0
:1012900007FA0BF747EA0E07CAF8207001E0032CA3
:1012A000DAD1076804FA08F415F4403F07EA0607A4
:1012B00044EA070404605DD0D9F8444023F00306F3
:1012C00003F0030744F4804406F18046BF00C9F8E8
:1012D000444006F59C36D9F8444004F48044019417
:1012E000019C0F24D6F808E0BC402EEA040E2D4CD9
:1012F000A04246D004F58064A04244D004F5806446
:10130000A04242D004F58064A04240D004F580643D
:10131000A0423ED004F58064A0423CD004F5806435
:10132000A0423AD004F58064A0420CBF07240824F0
:10133000BC40EF0244EA0E04B4606FEA0C06946805
:1013400054BF34404CEA0404AF029460D46854BFE4
:1013500034404CEA0404AF03D460546854BF3440B2
:101360004CEA0404ED035460146854BF34404CEA62
:10137000040414600133102B7FF448AF03B0BDE8C0
:10138000F08F0024D4E70124D2E70224D0E703241D
:10139000CEE70424CCE70524CAE70624C8E700BF4B
:1013A000003C014000000240003802400AB1816167
:1013B00070470904FBE7436901EA030221EA0301DC
:1013C00041EA024181617047194B37B51A6C194CDB
:1013D00042F080521A641B6C03F080530193019B0E
:1013E000236843F480332360FFF742FE05466368B9
:1013F000DA030CD523680F4D43F400332360FFF765
:1014000037FE04466B689B030AD5002006E0FFF711
:101410002FFE401BB0F57A7FE9D9032003B030BD21
:10142000FFF726FE001BB0F57A7FEBD9F5E700BF8A
:1014300000380240007000402DE9F341044640B3FB
:101440000368DB0710D423689F0761D4236819075A
:1014500000F1A68023685A0700F1C780A269002A1C
:1014600040F0308100202CE0944B9A6802F00C028E
:10147000042A07D09A6802F00C02082A0BD15B6894
:101480005E0208D58D4B1B689D03DCD56368002B7D
:10149000D9D1012015E06368884DB3F5803F13D1A1
:1014A0002B6843F480332B60FFF7E2FD834E054643
:1014B00033689803C7D4FFF7DBFD401B6428F7D9D6
:1014C000032002B0BDE8F0819BB92B6823F4803380
:1014D0002B602B6823F480232B60FFF7C9FD0646A1
:1014E0002B689903AFD5FFF7C3FD801B6428F7D99C
:1014F000E6E7B3F5A02F2B6803D143F480232B60DC
:10150000CEE723F480332B602B6823F48023CAE7D3
:101510006A4B9A6812F00C0F07D09A6802F00C021E
:10152000082A11D15B685A020ED4644A13689B07DB
:1015300002D5E368012BACD11368216923F0F803CD
:1015400043EAC103136081E7E3685C4DBBB12B68DC
:1015500043F001032B60FFF78BFD06462B689F07C6
:1015600007D52B68226923F0F80343EAC2032B60F6
:101570006CE7FFF77DFD801B0228EFD9A0E72B6801
:1015800023F001032B60FFF773FD06462B689807D5
:101590007FF55CAFFFF76CFD801B0228F6D98FE763
:1015A0006369464D83B16B6F43F001036B67FFF7CF
:1015B0005FFD06466B6F9B073FF54CAFFFF758FD8D
:1015C000801B0228F6D97BE76B6F23F001036B6762
:1015D000FFF74EFD06466B6F9F077FF53BAFFFF7AA
:1015E00047FD801B0228F6D96AE7344B1A6CD000FD
:1015F00027D41A6C012742F080521A641B6C03F046
:1016000080530193019B2E4D2B68D9051BD5A368F0
:101610002A4D012B27D12B6F43F001032B6741F299
:101620008838FFF725FD254E0546336F9B073FD5CC
:10163000002F3FF413AF214A136C23F0805313643F
:101640000CE70027DFE72B6843F480732B60FFF77C
:101650000FFD06462B68DA05D9D4FFF709FD801B7C
:101660006428F7D92CE7ABB92B6F41F2883823F007
:1016700001032B672B6F23F004032B67FFF7F8FCA4
:1016800006462B6F9807D3D5FFF7F2FC801B404529
:10169000F7D915E7052B2B6F03D143F004032B6714
:1016A000B9E723F001032B672B6F23F00403B5E7A1
:1016B000FFF7DEFC401B4045B7D901E70038024088
:1016C00000700040384DAB6803F00C03082B41D08C
:1016D0002B68022A23F080732B602ED1FFF7C8FC01
:1016E00006462B68990122D4A36A5B085A1ED4E9E6
:1016F00007310B4343EA0243626A43EA8213E26A18
:1017000043EA026343F000536B602B6843F080733D
:101710002B60FFF7ADFC244D04462B689A013FF582
:10172000A1AEFFF7A5FC001B0228F6D9C8E6FFF71B
:101730009FFC801B0228D4D9C2E6FFF799FC04461F
:101740002B689B017FF58EAEFFF792FC001B0228F1
:10175000F6D9B5E6012A6B683FF49BAE03F480022C
:10176000E1698A427FF495AE03F03F02216A8A4222
:101770007FF48FAE47F6C072616A1A40B2EB811FE8
:101780007FF487AEA26A03F440315208013AB1EB0C
:10179000024F7FF47EAE03F07063E26AB3EB026F38
:1017A0003FF460AE75E600BF00380240134908B54B
:1017B0008B6803F00C03042B1BD0082B1BD14A6849
:1017C0004B68496802F03F0213F48003C1F38811AB
:1017D0001ABF0B4800230B48A1FB0001FEF720FDB8
:1017E000064B5B68C3F3014301335B00B0FBF3F0CE
:1017F00008BD0348FCE70348FAE700BF0038024091
:1018000040787D010024F4002DE9F0410D460446A6
:1018100010B90120BDE8F081454A136803F00F03B9
:101820008B4228D321688F0730D4C80743D4404A5D
:10183000136803F00F03AB4266D8226851076FD4D8
:10184000130707D53B4A2169936823F4604343EAB1
:10185000C1039360FFF7AAFF364B374A9B68C3F377
:101860000313D35CD840354B1860354B1868FFF72D
:10187000BFFB0020CEE7136823F00F030B43136078
:10188000136803F00F038B42C3D1CBE711F0040FB1
:10189000284B03D09A6842F4E0529A600E0703D5B1
:1018A0009A6842F460429A609A68A06822F0F00256
:1018B00002439A60B9E761681E4B01291A681BD17F
:1018C00012F4003FA5D09A6841F28838194F22F0EF
:1018D00003020A439A60FFF7CBFB0646BB686268C7
:1018E00003F00C03B3EB820FA1D0FFF7C1FB801B09
:1018F0004045F3D903208DE7022902D112F0007F81
:10190000E0E712F0020FDDE7136823F00F032B432B
:101910001360136803F00F03AB427FF47AAF8CE7D8
:101920000449E0688B6823F4E05303438B6087E746
:10193000003C02400038024010B1009084000020BA
:101940008C000020704770B50E461546044628B33B
:1019500090F8453003F0FF021BB980F84420FFF7F0
:10196000F1FF04F10801206800F0A6F9A2683146F1
:10197000206800F0E5F9E36AA2682946606800F093
:101980000BFA2268A168002052F8213043F00103CD
:1019900042F82130012384F8453070BD0120FCE776
:1019A00090F83D30012B33D1022380F83D3003689D
:1019B000DA6842F00102DA60164A93421AD0B3F1B3
:1019C000804F17D0A2F57C42934213D002F580627B
:1019D00093420FD002F5806293420BD002F5784219
:1019E000934207D002F57052934203D0A2F594328D
:1019F000934207D19968084A0A40062A06D0B2F5F0
:101A0000803F03D01A6842F001021A60002070473C
:101A10000120704700000140070001007047704737
:101A20007047704703681A69910710B504460FD5CF
:101A3000DA6892070CD56FF002021A610122027770
:101A40009B69990700F08580FFF7E9FF0023237762
:101A500023681A69520710D5DA6850070DD56FF060
:101A6000040220461A61022222779B6913F4407F08
:101A700075D0FFF7D4FF0023237723681A69110775
:101A80000FD5DA6812070CD56FF0080220461A61EC
:101A900004222277DB699B0767D0FFF7C0FF002392
:101AA000237723681A69D00610D5DA68D1060DD5D8
:101AB0006FF0100220461A6108222277DB6913F4C6
:101AC000407F58D0FFF7ABFF0023237723681A69C4
:101AD000D20708D5DA68D00705D56FF00102204695
:101AE0001A61FEF762FE23681A69110608D5DA68E2
:101AF000120605D56FF0800220461A6100F0D9F871
:101B000023681A69D00508D5DA68110605D56FF47F
:101B1000807220461A6100F0CDF823681A695206D7
:101B200008D5DA68500605D56FF0400220461A61E4
:101B3000FFF777FF23681A69910622D5DA689206C3
:101B40001FD56FF0200220461A61BDE8104000F05A
:101B5000AFB8FFF763FF2046FFF762FF76E7FFF7B6
:101B60005DFF2046FFF75CFF85E7FFF757FF204644
:101B7000FFF756FF93E7FFF751FF2046FFF750FFAF
:101B8000A2E710BD304A0368904212D0B0F1804FF6
:101B90000FD0A2F57C4290420BD002F580629042B9
:101BA00007D002F58062904203D002F5784290425D
:101BB00019D14A6823F070031343234A904229D075
:101BC000B0F1804F26D0A2F57C42904222D002F59F
:101BD000806290421ED002F5806290421AD002F5D7
:101BE0007842904216D0194A904213D002F5806292
:101BF00090420FD002F5806290420BD0A2F598324D
:101C0000904207D002F58062904203D002F58062D4
:101C1000904203D123F44073CA6813434A6923F006
:101C20008003134303608B68C3620B688362064BB7
:101C3000984203D003F58063984201D10B69036396
:101C400001234361704700BF000001400040014094
:101C500010B5044650B390F83D3003F0FF021BB9B5
:101C600080F83C20FEF780FD02232068211D84F8C7
:101C70003D30FFF787FF0123002084F8483084F8C7
:101C80003E3084F83F3084F8403084F8413084F8A6
:101C9000423084F8433084F8443084F8453084F886
:101CA000463084F8473084F83D3010BD0120FCE711
:101CB00070477047704700000A6850F8223023F0E0
:101CC0000103F0B58D6840F822304B68CF682B4394
:101CD00050F822C03B430F693B434F693B438F6938
:101CE0003B43CF693B430F6A3B434F6A3B438F6A99
:101CF0003B43CF6AD1E90C643B43896B33432343B5
:101D00000B430E4901EA0C010B43A5F108014D42BA
:101D10004D41B6F5801F43EA851340F8223008D1C3
:101D20004AB1036843F48013036003681C430460F2
:101D300001E0002AF9D10020F0BD00BF8004C0FFFF
:101D4000F0B50B6800EB82028F690D693B434F6869
:101D5000013D566843EA07138F682C0543EA0723C1
:101D6000CF68496943EA0743023943EA055343EA26
:101D7000016306F040410B4353600368DB0208D562
:101D80004268436822F4700223F47003144323432F
:101D900043600020F0BD0000B3F5804F30B514D192
:101DA0008D690B6850F822402B434D6843EA0513B8
:101DB0008D68C96843EA052343EA01430449214089
:101DC0000B4340F82230002030BD6FF07043F8E73D
:101DD0000000F0CF4FF41631014800F015BA00BFF3
:101DE0004C0100207047C0B24FF0C8431880BFF3C9
:101DF0004F8FBFF34F8F70474FF0C8435880BFF3EA
:101E00004F8FBFF34F8F704700234FF0C84210B57C
:101E10008B4200D110BD30F813405480BFF34F8F78
:101E2000BFF34F8F0133F3E700EB41014FF0C8439D
:101E3000884200D170475A8820F8022BF8E7022028
:101E4000FFF75CB810B5A0B01422002101A805F07E
:101E5000ABFA6822002106A805F0A6FA0023124971
:101E60001A46124800F088FE032301A90446039392
:101E700002F037F8F0220020114601F019FDF0229F
:101E80000020114601F02CFD094B0A4A06A90E93C9
:101E90002046094B0F93094B1193094B1593094B9E
:101EA00002F03DF820B010BD28B1009024B500909C
:101EB000E71D009029490090F91D0090091E00902F
:101EC000291E009089450090012908B503D1FFF72C
:101ED000B6FF002008BD4FF0FF30FBE700F01F0108
:101EE000064AC0F3C423C0F34510D35C525C03EB35
:101EF0000243034A105C03EB00207047A8B4009033
:101F000068B40090C1B2074AC0F30743C0F307208A
:101F1000D35C525C03EBC223034A105C03EB40101A
:101F2000704700BF68B2009068B100904FF6FF7034
:101F300070470000F0B5DFF854E006460D46144641
:101F4000DEF800E01F46BEF1000F03D0F446BDE806
:101F5000F04060470B490C4856F8042B013CC2F393
:101F600007435FFA82FEC2F30722CB5C11F80EE052
:101F7000825C03EBCE2303EB42132B803D44EBD179
:101F8000F0BD00BF68B2009068B1009050590220C7
:101F9000F0B5154E86460F46144676681D461EB1AE
:101FA000B446BDE8F040604702F18041501E0F4E3C
:101FB000013903FB00E007EB81010D4F0288013C72
:101FC000A0EB050002F01F0316F803E04FEAD2234E
:101FD000C2F34512F35CBA5C03EB0E4303EB02233E
:101FE00041F80439EAD1F0BD50590220A8B400905C
:101FF00068B40090074B5A68013210B55A605A6BAA
:102000005C6A02EBC0014C60002102F8301058629B
:1020100010BD00BFF45A022010B50F2344680D49CB
:1020200001EBC302126C94420A4A03D213F1FF334C
:10203000F6D210BD0F2B0CD81168091B11608168F6
:10204000C06801B1486008B1016010BD02EBC30374
:10205000596410BDF45A0220F8B5274E05460818F9
:102060000C46F368B26B013B1344834205D34B59D2
:102070001BB943681D44FFF7CFFFB36B9C420AD9DD
:1020800054F8047CE71B3B682BB97B683C46384618
:102090001D44FFF7C1FF0F2306EBC302126C9542EC
:1020A00003D213F1FF33F7D223E00F2B21D80833EB
:1020B000601906EBC302516800222461A16084E824
:1020C000240040F8045C04F1080001B1486006EB0C
:1020D000C303A160E260586033680749EA1896F8C4
:1020E000293032602BB9CB689B1A8A68934288BF2B
:1020F0008B602846F8BD00BFF45A02202DE9F74F47
:10210000234F8346FE68B846BC6B013E264494E8E4
:1021100028009BBB61198E4230D954F805A0BAF152
:10212000000F2BD07B6B13F83A30012B26D1D8F857
:102130002C302046D1F8049000930191FFF76CFFFA
:102140000199D8F83420086802EBC0022046546098
:102150004A4605F00FF9009B04EB090128469A4511
:1021600002BFD8F834305B1BC8F83430FFF774FF77
:10217000BBF1000F01D0584505D24D462C44A64274
:10218000C5D8012000E0002003B0BDE8F08F00BFFB
:10219000F45A022028B1034BDA6B026002B150609E
:1021A000D8637047F45A0220034B5B6B03EBC0000B
:1021B00040680830704700BFF45A0220054BDA69C6
:1021C0000132DA615A6B12F83030013302F83030E4
:1021D000FFF7EABFF45A022003680A4930B553F802
:1021E000085C4C6B14F83530012B03D9CA690AB16D
:1021F000013ACA61013B04F83530002303601846F8
:1022000030BD00BFF45A0220024B21F003011860D8
:10221000596070475859022010B5044660B1074B09
:102220005B6B03EBC00359684868FFF715FF204656
:10223000BDE81040FFF7DEBE10BD00BFF45A02201B
:102240002DE9F041224CE36A3BB9224B9D685B6863
:102250000835B3FBF5F5023503E023691D1D05EBD9
:10226000D305E80000F0C0F8804660B3616B2269D6
:1022700001EBC003E76AD2005E68174B08361B68A3
:10228000304698472269691E66631346C4F82C805D
:102290008B4205D2013306EBC30040F8043CF7E75C
:1022A00006EBC3064FF000083846C6F804806368A2
:1022B00062629B1A25612B4463603FB1FFF7ACFF5C
:1022C0004046BDE8F0810120BDE8F081BDE8F08125
:1022D000F45A022058590220A8000020174A70B56D
:1022E00092F8283043BB012382F82830144B9968B8
:1022F00011B95968890899605A2110261162002184
:1023000002EBC10006FA01F501310C4C05641029FD
:10231000F6D11968012558680223A1632361A0F151
:102320001403E0600B4463635D6065626560FFF702
:1023300093FEFFF785FF256370BD00BFF45A0220AE
:10234000585902202DE9F0410746264EFFF7C6FFF7
:102350000337306CF26B27F00307144604378742CB
:1023600038BF074634B154F8043C9F4223682CD050
:102370001C46F7E7F368B26B02EB030858F8045CFD
:10238000C5EB08052B6833B12046FFF7B7FE58F8B8
:10239000045CC5EB08052B680BBB6B689F421EDC19
:1023A00028461C1DFFF738FEF3686868E41BDB1B3A
:1023B000C01B2C44F36073693B44736102D029460F
:1023C000FFF74AFE44F8047C09E00BB161685960EC
:1023D000616801B10B60A24201D12368F36320461A
:1023E000BDE8F081F45A02202DE9F843394E044645
:1023F000FFF774FF356C3368AC4224BF033424F01C
:102400000305344C0C35AB423ED3236B62689A42D1
:102410000FD97368776A013B4FEAC7087360736B23
:1024200003EB080252687262012203F8372057B9A1
:102430002AE0013B2363FFF703FF236B0133236390
:102440000028E6D020E00F2306EBC302126C954271
:102450000CD213F1FF33F7D208E094682CB1626814
:10246000954214D9A268002AF7D101330F2B03D863
:1024700006EBC302526CF6E72846FFF73FFE002842
:10248000E1D03846FFF7B6FD0020BDE8F883D4F868
:1024900004902046336CC5EB09020C339A4238BFD6
:1024A0004D46FFF7B9FD736B61194D4598444FF0E8
:1024B0000003C8F8044027606560A360246141F808
:1024C000045C03DAC5EB0900FFF7C6FD3846BDE83A
:1024D000F88300BFF45A022008B1FFF785BF7047A8
:1024E00073B50646FFF7F8FF054660B1FFF766FED5
:1024F00002AC064B324644F8040D00211B68984795
:102500002046FFF769FE284602B070BDAC000020EF
:10251000C3B2CAB29A1AC0F3072392B210B514B26A
:10252000002CBCBF524214B2C1F30722090C9B1A03
:10253000C1EB10419BB289B21AB208B2002ABCBFEB
:102540005B421AB20028B8BF494202FB02F2B8BF90
:1025500008B204FB042280B200FB002010BD08B5C5
:1025600001F070F8BDE8084000F072BF08B501F056
:1025700071F8BDE8084000F06BBF00000448352347
:10258000037034238370C37061230371704700BFED
:102590009000002010B538B309B30AB3B2F9004077
:1025A000B1F90030A342A8BF2346B2F9024003802C
:1025B000B1F90230A342A8BF2346B2F90440B2F9F0
:1025C00006204380B1F90430A342B8BF234683807C
:1025D000B1F906309342B8BF1346C38010BD11460F
:1025E0000B6803604B68436010BD68B189B2038813
:1025F00092B20B440380838819444388134481803A
:102600004380C3881A44C28070470000024B1B6895
:102610005884002099847047A4000020B0F902205B
:10262000B1F906309A4214DCB1F90220B0F9063053
:102630009A420EDCB0F90020B1F904309A4208DC6D
:10264000B0F90400B1F900308342CCBF0020012072
:1026500070470020704708B501F0F2F801F058F912
:10266000BDE8084004F040B800F038BF00F03CBFBF
:10267000034B1B68DA6900B1D8611046704700BF90
:10268000A4000020094B0A4610B41880084B19809A
:10269000084B1B68597C084B53F82130D9680C6AE9
:1026A0000146184623465DF8044B1847DC5B0220C0
:1026B000CC5B0220A4000020045C022070B51A4EFE
:1026C00004461A4D06F1840304F108010367EB6820
:1026D0001A1D9B631B64DA6303F1080242615A7C92
:1026E000134B53F82200C3681B6B9847114B63666A
:1026F0006B68E361EB680833636101232376E3765B
:1027000004F0CAF80323A06484F868306FF07043C3
:1027100030682363636300F0E1FEA86800F0E4FE24
:10272000054A064B1A6070BD6C59022098000020C3
:10273000045C022040B1009058B10090FC5B022084
:1027400070B500240A4D0B4E7422C5F88040043544
:1027500033682146284698473368082221460648B0
:102760009847064BDD60064B1C70064B1C6070BD25
:102770006C590220AC000020045C0220980000206C
:10278000EC5B0220C85B02202DE9F34104460420E3
:1027900016461F460D4600F065FB134B8046684603
:1027A000DB68DA6C1B6D144416441D441F44ADF8FD
:1027B0000040ADF80460ADF80250ADF8067003F0CB
:1027C00013FF28B9404600F04DFB02B0BDE8F08190
:1027D0003B4632462946204600F0A2FB03F042FE6B
:1027E0000028F5D1EEE700BF98000020002110B5C9
:1027F0000846FFF70BFF43F6FF7303491A460846E6
:10280000BDE81040FFF7C0BF01C0FFFFF0B5204D8D
:1028100085B0D5F88030002B37D101236A466E464B
:10282000C5F880301B4B03F108071868083353F8CC
:10283000041C1446BB4203C42246F6D1186899888A
:102840009B792060A3713346A180134C13F8012BB0
:1028500004F8012B1A78002AF8D1FFF78FFE10F840
:10286000013B224604F8013B0378002BF7D153705B
:10287000FFF7B0FAFFF7E6FA084B0948C5F89830B9
:1028800005B0BDE8F04000F0D1B805B0F0BD00BF24
:102890006C59022048B10090F05902204127009065
:1028A000045A022090B583B000AF534A524B1B68C4
:1028B00023F001031360514B1B68C3F30A0340F27A
:1028C000494293420CBF01230023DAB24B4B1B68F1
:1028D000C3F30A0340F251418B420CBF0123002392
:1028E000DBB21343DBB21946444B1B68C3F30A0344
:1028F00040F2524293420CBF01230023DBB20B4350
:10290000002B10D03E4B01221A6000BF3C4B1B68CD
:10291000002BFBD13B4B3C4A1A603A4B1B683B4AAD
:10292000934218D0FEE73A4B1B68C3F30A03B3F592
:102930008A6F10D1374B01221A6000BF354B1B68DC
:10294000002BFBD1344B304A1A60334B1B682F4AA3
:10295000934200D0FEE7FFF759FF304B2E221A704A
:10296000FFF740FA2E48FFF7A9FE00F011FD78604E
:1029700000F0F6FE0346002B0CBF01230023DCB25F
:1029800000F0F4FE0346002B0CBF01230023DBB252
:102990002343DBB2002B09D000F0D6FE044600F042
:1029A000D6FE03461946204600F0D4FE0021002042
:1029B000FFF768FE03F0F8FE1A4B1B68002B12D0DD
:1029C0000DE0184B1B681B68002B03D0154B1B68D0
:1029D0001B689847134B1B685B68124A1360114BC6
:1029E0001B68002BEDD1104B01221A707B68184632
:1029F0000C37BD4690BD00BF002000E0002004E081
:102A00000830024000300240C2A507F4CDB5E8B559
:102A10000010005C084C0258004C0258BC5B0220BD
:102A200070590220E8590220E45B022080B483B090
:102A300000AF7860064B1A687B685A60044A7B686E
:102A4000136000BF0C37BD465DF8047B704700BFC4
:102A5000E4590220012809DC054B53F8200020B17D
:102A6000C3681B681BB10068F9E770470020704716
:102A7000045C0220FFF78EBB012BF8B506460D461D
:102A800017461C4601DD0020F8BD1C20FFF75AFC4C
:102A90000028F8D00DB1056109E0094B53F8241066
:102AA00029B10B680BB11946FBE70B6903610023E1
:102AB00084618782C660036043608360F8BD00BFA5
:102AC000045C022081690A4A52F821309842036866
:102AD00004D142F821300BB100225A60426802B1A1
:102AE0001360036803B15A600023036043607047BA
:102AF000045C022030B508B9012030BD8469012C86
:102B0000FADC1B4B1A789442A4BF621C1A70194A53
:102B100052F8243015461BB942F82400184630BD3F
:102B20005A680AB11346FBE7C2681268D968096897
:102B3000914203DD1B68002BF8D1DDE709D1818AC2
:102B4000012906D1196821B10B46C96809688A4272
:102B5000F8DD5A6812B11060426001E045F82400C7
:102B60005860984208BF00230360002030BD00BFBA
:102B7000B65B0220045C022038B51D46FFF77CFFDF
:102B8000044648B1FFF7B6FFE3681B6823B9034B5F
:102B900016351B6843F82540204638BDA4000020A8
:102BA0002DE9F04F054685B000287FD0414C03F059
:102BB000B5FF07462368A146B3F9228003F096FFCC
:102BC000226886B2938C9B1B93842B78002B61D058
:102BD00047F6FF71284604F009F801468246284668
:102BE00004F02EF82268938D03F00303012B04D028
:102BF000022B04D190FBF3F302E0034600E0002334
:102C0000518C1FFA80FB2846CB1A9BB219B2518413
:102C1000ADF808100BF1FF31B2F924200B445146F6
:102C2000ADF80A20013AADF80C30BBB21A4401935A
:102C3000ADF80E2002AA04F033F82268BDF80A109D
:102C400028469184514600F05BF82A5C05EB000EA3
:102C5000019B0A2A01D00D2A12D12268918D01F020
:102C60000301013901298ABF118CA2F82280518405
:102C70009EF800100A290AD1918C0B44938406E037
:102C8000BDF80800D9F800308344A3F822B09EF8BC
:102C9000003043B923689A8C16449A8D22F00302BF
:102CA0009E849A8502E00EF101058EE705B0BDE82D
:102CB000F08F00BFA4000020024B1B6859849A8447
:102CC000FFF76EBFA4000020024B1A6802B918601B
:102CD00000F032B80C5A0220F8B5084E05460468D8
:102CE000336820461B6898473368074620465B6870
:102CF0009847204428603846F8BD00BFFC5B02209E
:102D0000F8B506460D460024054F3DB13B683046F8
:102D1000013D5B68984706440444F6E72046F8BD49
:102D2000FC5B02200078704701207047012070474B
:102D30000170012070470000024B1B6803B1184767
:102D4000704700BF6C5A0220B1F90030B0F9002082
:102D50009A42B0F90220B8BF0380B1F902309A421A
:102D6000B0F90420B8BF4380B1F904309A42B0F9F9
:102D70000620C8BF8380B1F906309A42C8BFC3801D
:102D8000704770B5B1F900300646B2F90050B1F99C
:102D900004409D42B8BF1D46B1F902300580B2F92A
:102DA00002008342B8BF0346B2F904008442738034
:102DB000A8BF0446B2F90600B1F90620B4808242E9
:102DC000A8BF0246A542F28004DC9342CCBF00209B
:102DD000012070BD002070BD70B5840742BF02F1B4
:102DE000FF3201800230540823D0032C234601EB2C
:102DF000014502D800EB830316E000F110032646DC
:102E0000043E43F8105C43F80C5C1033032E43F887
:102E1000185C43F8145CF3DC043CA3085E1CA4EBD0
:102E2000830300EB0610E5E7984202D040F8045B0C
:102E3000FAE7D30748BF018070BD0000084B1B684C
:102E400070B51A7C82EA0001490705D59C6BD96BE5
:102E500025680E6826600D601874104670BD00BFAE
:102E6000A4000020014B1B689B681847B00000209D
:102E7000154B0A461B68B3F90A10914230B4044658
:102E800020DCB3F90E108A421CDCB3F90810814231
:102E900018DCB3F90C10884214DC197C587C11F052
:102EA000010F0A4951F8200004D0C3682146DB69AC
:102EB00030BC1847C168DB6B8D6921461B68AC4686
:102EC00030BC604730BC7047A4000020045C022086
:102ED000114B30B41C680D46B4F90A308B4219DC32
:102EE000B4F90E30994215DCB4F90810B4F90C307D
:102EF0008142B8BF01469342A8BF1346994209DCFC
:102F0000607C064A52F82000C26894682A46A446AB
:102F100030BC604730BC7047A4000020045C022035
:102F200073B5134C2468B4F90850B4F90C608542A9
:102F3000B8BF05469642A8BF1646AE4215DBB4F9A7
:102F40000A208A42B8BF0A46B4F90E108B42A8BFC5
:102F50000B469A4209DC607C064951F82000C168A2
:102F6000009333460C692946A04702B070BD00BFEC
:102F7000A4000020045C02202DE9F04F8FB0DFF8A0
:102F8000CCE10C461746189DDEF800E00295199D2D
:102F9000079008951B9D01930395DDF868A01C9E82
:102FA000DDF874B01E9DBEF1000F02D0DEF80040C7
:102FB00054E0029B089A1343012B54D1614B1868CB
:102FC000B0F90A20531A002B0ADD0199C3EB010E58
:102FD000BEF1000F40F3B280039901FB036602E0EB
:102FE000DDF804E00A46019B1C44B0F90E30013CB8
:102FF000E41A002C05DDC4EB0E0EBEF1000F40F309
:103000009D80079BB0F90C103B44013B5B1A002BE1
:10301000C8BFFF1A079B591BB0F90830994209DA5B
:103020005B1A1D44FF1A23F0070306EBE50605F0C3
:1030300007051944002F40F38180407C424B039CDC
:1030400053F82000C368CDF874B01C951B961A94F1
:10305000CDF864A0CDF860E05C683B46A4460FB0B4
:10306000BDE8F04F6047CAF108037546DFF8D49019
:103070000B93029BCDF814E0013B0D93059B019A45
:1030800093425BDA089BE3180993013B0A93D9F852
:1030900000300A99B3F90A208A4248DCB3F90E30AD
:1030A0009C4244DC079B4FF0000806960093CDF845
:1030B0001080049BBB423ADAB8F1000F05D1069BA1
:1030C0004FF008081D78013306930B9BCAEB0808E4
:1030D00045FA03F305FA0AF513F0FF01EDB204D146
:1030E000D9F80020127C920719D4D9F80020D26BAD
:1030F00010680C90BBF1000F02D05BF8213000E0AB
:10310000DBB2136000990D9A0A9B0A44009821468D
:10311000FFF706FFD9F800300C9ADB6B1A60049BAE
:10312000029A01330493009B13440093C1E7059B6B
:10313000099C01330593039B1E449FE70FB0BDE834
:10314000F08F00BFA4000020045C0220C05B0220BE
:103150002DE9F04F8FB0DFF818E205469046189C35
:103160001D9E0294199CDEF800E008941B9C0091BF
:10317000039401931A9F1C9C0496BEF1000F02D089
:10318000DEF800407AE0029B089A1343012B7AD1C3
:10319000754B01991868009BB0F90A20D31A002BCF
:1031A00007DDC91A002940F3DB80039E06FB0344B8
:1031B00000E0009A9DE848001E44B0F90E30013E40
:1031C000F61A002E03DD891B002940F3C98005EBA8
:1031D0000803B0F90C60013B9B1BB0F90860002BA1
:1031E000C8BFC3EB0808B54231DA731B082FC3EB25
:1031F000080827D00DDC022F14D0042F1AD0012F7D
:1032000026D123F0070604EBE30403F0070335445B
:103210001EE0182F18D0202F16D0102F18D104EB35
:10322000430413E023F0030604EBA30403F00303B9
:1032300035440DE023F0010604EB630403F00103C1
:10324000354405E01C4401E004EB830435460023CB
:10325000B8F1000F40F38480467C444850F82600C3
:10326000049ED0F80CE01C93039B189129461A93F6
:1032700043461D961B941997DEF80440A4460FB0F0
:10328000BDE8F04F6047C7F10803F346DFF8D8A068
:103290000B93029BCDF818E0013B0D93069B019A1E
:1032A00093425DDA009A089B13440993013B0A9309
:1032B000DAF800300A99B3F90A208A4248DCB3F9F7
:1032C0000E30009A9A4243DC4FF000092E460794D4
:1032D000CDF81490059B43453ADAB9F1000F06D1B9
:1032E000079B4FF0080993F800B0013307930B9B3D
:1032F0000BFA07F2C7EB09094BFA03F35FFA82FBFB
:1033000013F0FF0104D1DAF80020127C920717D4E1
:10331000DAF80020D26B10680C90049810B150F8C5
:10332000213000E0DBB2136030460D9A0A9B324434
:103330000099FFF7F5FDDAF800300C9ADB6B1A60A4
:10334000059B029A01330593334613441E46C1E799
:10335000069B01330693039B1C44099B00939DE746
:103360000FB0BDE8F08F00BFA4000020045C022075
:10337000C05B0220044B1968044B4A7C083153F8A7
:103380002200C3681B6B1847A4000020045C0220C5
:1033900037B5FFF7EFFF00F0BBF80446002844D133
:1033A00005462846FFF756FB019050B1C3680C2133
:1033B00001A85B6A98470346002834D001989847D3
:1033C00004430135022DECD17CBB00F0F7F8184B1B
:1033D0001A686FF070439A4201D1002026E0012460
:1033E0002046FFF737FB0190C8B1204603F01EFED0
:1033F0000420FFF737FD43F6FF7300211A46084605
:10340000FFF78EFD0020FFF72DFD019B0E2101A887
:10341000DB685B6A9847034608B10198984714F146
:10342000FF34DDD2D9E7012000E0204603B030BDF3
:103430006C590220044B1B685A7C044B53F8223011
:103440001B691B68184700BFA4000020045C022011
:10345000044B1B685A7C044B53F822301B695B6891
:10346000184700BFA4000020045C0220044B1B6826
:103470001A7C52074CBF9B6BDB6B1860704700BF18
:10348000A400002008B5064B1B68196B814206D0CA
:103490001863FFF7CFFFBDE80840FFF7E7BF08BD9F
:1034A000A4000020044B1B681A7C52074CBFDB6B46
:1034B0009B6B1860704700BFA400002008B5064B46
:1034C0001B68596B814206D05863FFF7B3FFBDE814
:1034D0000840FFF7E7BF08BDA4000020014B1B68B0
:1034E0005B681847B0000020014B1B681B68184739
:1034F000B000002010B5044C2068FEF74BFE0023FE
:10350000024A2360136010BD145C0220745A02202A
:1035100038B50A4D2C6864B9094B18688000FEF76D
:1035200011FF286038B10748074B40F8043FFFF708
:103530007DFA002038BD012038BD00BF145C022098
:10354000B4000020745A0220F53400902DE9F843AD
:10355000044618B387681FB3144D286820B3226847
:10356000B2F5807F1FDC124B00261B689A42A8BF71
:103570001A469046464509DAD5F8009057F82600D5
:10358000FFF758FF49F826000136F3E7094B1B689F
:103590000BB1204698472868BDE8F883BDE8F8835A
:1035A0003846BDE8F8830020BDE8F883145C0220AB
:1035B000B4000020745A0220FFF7C8BF2DE9F74F6E
:1035C0001D4E00F02EF900248046B146DFF870A0B1
:1035D00044452DDA2046FFF73DFA38B333682046DC
:1035E00093F811B05C7400F063F8082804DDD9F892
:1035F000003083F811B019E05AF824301A690F4BE3
:103600009A42F4D02046002500F055F803469D422A
:10361000EDDAEFB2019301353846FFF719FF39466D
:103620000246204600F02CF9019BF0E70134CFE779
:1036300003B0BDE8F08F00BFA40000206CDD009057
:10364000045C0220024B1B689B6B1868704700BF2C
:10365000A4000020024B1B68DB6B1868704700BF9A
:10366000A4000020012810B50C4608DCFFF7F2F991
:1036700028B1C36821469B6ABDE810401847002066
:1036800010BD38B5014605460120FFF7EBFF0446A3
:1036900029460020FFF7E6FFA042B8BF204620EAF7
:1036A000E07038BD0121FFF7DDBF0221FFF7DABF6F
:1036B0000821FFF7D7BF0921FFF7D4BF024B1B68D2
:1036C000587CFFF7EFBF00BFA4000020024B1B682F
:1036D000587CFFF7EABF00BFA4000020024B1B6824
:1036E000587CFFF7E8BF00BFA4000020034B08216F
:1036F00053F82000C3689B6A184700BF045C02208F
:1037000010B5FFF7A7F928B1C3680221DB6ABDE84D
:103710001040184710BD0000024B1B68587CFFF793
:10372000EFBF00BFA4000020024B53F820301B69FC
:1037300058687047045C0220024B53F820301B6924
:1037400018687047045C02200120FFF79ABF02202E
:10375000FFF797BF014B83E803007047805A0220B0
:10376000014B1868704700BF805A0220014B58680F
:10377000704700BF805A022000283BD030F0010380
:1037800029D030F0030328D030F0070327D030F0E1
:103790000F0326D030F01F0325D030F0FF0324D0D4
:1037A00020F4FF7323F001030BB320F47F6323F0B5
:1037B0000F03E3B120F4FF4323F07F03BBB1030CFD
:1037C0001B04A3B1830C9B049BB110F07F4F0CBF73
:1037D00018202020704701207047022070470320E6
:1037E000704704207047052070470820704710205C
:1037F00070471220704708B5FFF7BEFF01280FD0B1
:10380000831E062B09D9A0F10903072B07D911380C
:103810000F288CBF0020202008BD082008BD1020E4
:1038200008BD10B50020FFF715F9041C4FF001008A
:1038300018BF0124FFF70EF900B10134204610BD76
:103840000D4B1A6810B5517C1C460C4A52F82100E9
:1038500040B1C36813B11B68042B01D00068F7E7BF
:10386000FFF730F9236800221A6603F10802BDE869
:1038700010405A61FFF77EBDA4000020045C0220C6
:1038800037B50C461546FFF7E5F8019008B9012059
:103890000CE0C368102101A85B6A98470346002822
:1038A000F5D001982A4621469847002003B030BD44
:1038B00037B50C461546FFF7CDF8019008B9012041
:1038C0000CE0C3680B2101A85B6A984703460028F7
:1038D000F5D001982A4621469847002003B030BD14
:1038E00037B50C461546FFF7B5F8019008B9012029
:1038F0000CE0C3680A2101A85B6A984703460028C8
:10390000F5D001982A4621469847002003B030BDE3
:1039100010B5074C2368186BFFF78CFDFFF7A6FD69
:103920002368586BFFF786FDBDE81040FFF7BABD6E
:10393000A4000020104670474068801A0138704784
:10394000084670470068401A0138704710B4846810
:10395000D4F8F840A4465DF8044B60478368D3F878
:10396000F4301847F7B58768164604460D46FFF74A
:10397000F5FF0190019A2946BB6A20465340324622
:10398000FFF7E4FF03B0F0BD13B584680092D4F8EC
:10399000F040A04702B010BD13B5846800930B46F9
:1039A000D4F8F040A04702B010BD10B48468D4F839
:1039B000F040A4465DF8044B604730B48468D4F806
:1039C000EC40A44630BC60477047000073B5079ECA
:1039D00084680C4D76B1286888B906980090204616
:1039E000D4F8A860B047D4F8A8302B60064BC4F8D0
:1039F000A83004E02B6813B1C4F8A8302E6002B0E0
:103A000070BD00BF885A0220C9390090026CD0F8FE
:103A1000DC3090691847026CD0F8E03090691847A4
:103A20002DE9F3470A9C914685688A46984600949A
:103A3000C9EB04042846D5F8A8600B9FB047CAEB31
:103A40000806621C286C3946D5F8E43006FB0222D1
:103A5000806902B0BDE8F04718472DE9F3470A9C9A
:103A6000914685688A4698460094C9EB0404284626
:103A7000D5F8A8600B9FB047CAEB0806621C286CFB
:103A80003946D5F8E83006FB0222806902B0BDE86D
:103A9000F04718470139172928D8DFE801F0142723
:103AA000272727272727270E101219290C27272712
:103AB000272727231E250F4870470F4870470F48B8
:103AC00070470F48704703689B68D3F8040170473C
:103AD00003689B68D3F8FC00704703689B68D3F8C1
:103AE000000170470748704707487047002070473B
:103AF00006487047B73E0090A33E00908F3E00906E
:103B0000453E0090A93D0090CD390090CD3E0090FB
:103B1000013980680D2923D8DFE801F0090B0D0F6A
:103B20002222221125070713181D01207047006863
:103B300070474068704780687047C0687047806B06
:103B4000704788B1406B00F00100704760B1406B76
:103B5000C0F34000704738B1406BC0F3800070473D
:103B60004FF0FF30704700207047836801290CBF79
:103B7000586C00207047826800230B804B801368CC
:103B8000013B8B805368013BCB807047F0B5104CF4
:103B900091B0074626466D4620340FCE0FC596E8F5
:103BA0000F0085E80F000FCC08AD0FC594E80F009B
:103BB00085E80F0010AA7B6B02EB830353F8402CBF
:103BC00053F8203CC7F80821C7F80C3111B0F0BDFC
:103BD000E4B4009007B58DE806006A4603218069C9
:103BE000FEF772F903B05DF804FB0846704708461B
:103BF0007047084670471046704710467047104699
:103C000070474068801A013870470068401A0138D0
:103C100070470068401A013870474068801A0138C0
:103C200070474068801A013870470068401A0138B0
:103C300070472DE9F341846898460E461746E38C99
:103C40009B072ED5D4F8083120469847D4F80C317C
:103C500005463A46314620469847A36922690646FA
:103C60009D42D4BF002301239542B8BF43F0010316
:103C700062699042B8BF43F0010313B9E369984207
:103C80000ADD626820462368013A013B0092002267
:103C9000D4F8A8701146B847D4F8AC30324629465B
:103CA00001E0D4F8AC3020469847D4F8A43041461F
:103CB000204602B0BDE8F0411847F7B584680E46CB
:103CC0001746E38C9B0743D5D4F808312046984724
:103CD000D4F80C31314605463A4620469847D4F888
:103CE000983006461BB10022012120469847A3695F
:103CF00022699D42D4BF002301239542B8BF43F0FF
:103D0000010362699642B8BF43F0010313B9E36946
:103D10009E420ADD626820462368013A013B009218
:103D20000022D4F8A8701146B8472946D4F8AC3020
:103D3000324620469847D4F8A03020469847D4F819
:103D4000983005467BB101220021204698470AE0C1
:103D5000D4F8AC3020469847D4F8A030204603B0C1
:103D6000BDE8F0401847284603B0F0BD38B5856877
:103D700004469DB94FF4BE70FEF7E4FA084B4FF4C9
:103D8000BE72A0601B6829469847A36802221C6483
:103D9000DA8401221A62034AC3F8102138BD00BF39
:103DA000AC0000208D3B009070B506460D461446D1
:103DB000FFF7DCFFB368002B3BD0262D02D0272D68
:103DC00016D070BD9A6B102A02D0122A08D070BD8E
:103DD000184AC3F8DC40C3F8B820C3F8B42070BD5B
:103DE000154AC3F8E040C3F8BC20C3F8C02070BD3A
:103DF0009A6B102A02D0122A0ED070BD3CB10F4A25
:103E0000C3F8E440C3F8CC20C3F8C82070BDC3F8A1
:103E1000CC40C3F8C84070BD3CB1094AC3F8E84083
:103E2000C3F8D020C3F8D42070BDC3F8D040C3F885
:103E3000D44070BD0D3A0090173A0090213A00909E
:103E40005B3A009038B50546FFF790FF4FF4FA70E3
:103E5000AC68FEF777FAA066A06B23680730C01045
:103E60005843FEF76FFA00220121E066A869FEF7C9
:103E70002BF8D4F810310546204698472046D4F850
:103E8000B0309847002DD4BF0020012038BD70B558
:103E900006460D461446FFF769FFB3681D605C6077
:103EA00070BD70B506460D461446FFF75FFFB36858
:103EB0009D60DC6070BD10B50446FFF757FF00221F
:103EC0000621A069BDE81040FDF7FEBF10B504460D
:103ED000FFF74CFF00220521A069BDE81040FDF767
:103EE000F3BF38B50C460546FFF740FF2268AB68C4
:103EF000DA6262681A63A2685A63520707D51A68C1
:103F0000596883E806009A68D968DA609960A289DE
:103F10009A84226912B122EAE2721A6238BD2DE94E
:103F2000F04104461E4617468846FFF71FFFA56866
:103F30006822414605F58A7003F062FA2046B847C8
:103F40002046B04723699B689847A862BDE8F08186
:103F500008B5D0F8B430984708BDD0F8383188B2E9
:103F6000184700002DE9F04F394E8246856885B02C
:103F70003068884614469946007C10F0010FA3EB88
:103F800001003DD04300471C03930E9B9C425BDC29
:103F9000D5F8C8B0EE6EBBF1000F01D1C34607E003
:103FA0008DE850004B46224641465046D8470DE02A
:103FB000CB450ADC5946D5F8F4302246504698479E
:103FC0000BF1010B26F8020BF2E7EE6E039AB31E1B
:103FD0001644B34205D0A96A33F8022F4A401A802A
:103FE000F7E7009422464B4641462846D5F8A8609C
:103FF000B047D5F840313946E86E98470134C4E7F8
:104000000E9FBC1A671C00FB07770E98009028468D
:10401000D5F8A840A0473368AE6EDA6B0123B2F83A
:1040200000808FB1FA2F3C4628BFFA2423B12246E4
:1040300041463046FEF7D0FED5F8403121463046A5
:104040003F1B98470023ECE705B0BDE8F08F00BFA9
:10405000A40000202DE9F04F8FB0039383680590F2
:104060000993199B0691082B08920CD84FF48B7377
:10407000199AD340DB0706D5984B1B681B7C03F0CD
:104080000303022B10D0069B1C9A18989918089AC3
:10409000039B02440998CB18013A013B0092099A0C
:1040A000D2F8A840089AA047039B1C9A013B089F9E
:1040B0000D93069B13440493049A0D9B13440C9395
:1040C000089B189AFB1A9A4240F35882199B013BAD
:1040D0000F2B00F24D82DFE813F01000BF004B02FF
:1040E00048014B024B024B02DB014B024B024B02DD
:1040F0004B024B024B024B024502059B9C681D9BE9
:104100005B680B93754B1B681B7C03F00303022B4E
:1041100022D0032B74D0012B72D01D9B4FF080084E
:10412000039E1C9DDDF86CB0B3F80090BDF82CA088
:104130009BF8001048FA05F20135D4F838311142E5
:1041400014BF504648469847082D04BF0BF1010B99
:104150000025013EECD10BE21B9B0025DDF810B0E1
:104160000A932B46D4F86CA0DDF87080CDF81CB013
:104170000A9A92F80090802242FA08F219EA02099B
:104180000DD01BB9D4F86CA0DDF81CB0BDF82C30F4
:1041900001350AF1020A2AF8023C012313E0012B3F
:1041A00010D1079B3A4600975946013B2046D4F868
:1041B000A860B047D4F840312946E06E98474D4694
:1041C0004B4600E04B46079A08F10108039901327B
:1041D000B8F1080F079201BF4FF000080A9A0132A8
:1041E0000A92049A0A4407999142C1D1002D00F025
:1041F000BF8100973A46D4F8A86059460C9BAAE1C3
:10420000039B4FF0800B049A1C9DDDF86C8003EB40
:10421000020A0793079B98F80020C3EB0A094BFAA0
:1042200005F31A420DD0D4F8F4303A4649460598C1
:104230009847A36A3A4649464340D4F8F86005983F
:10424000B0470135079B082D04BF08F10108002580
:10425000013B0793DED18BE1059B9C681D9B002BE6
:1042600000F086811B9B93F800B01C4B1B681B7CE5
:1042700013F003030FD0022B40F07A81049B002639
:10428000D4F86CA00A9332461B9BDDF870900B9318
:10429000DDF8108047E01C9D4FF0C008039EDDF85C
:1042A0006C90C5F103021D9901355200C2F106035D
:1042B00048FA03F303EA0B0323FA02F2D4F8383185
:1042C00031F822009847042D02BF99F801B000256B
:1042D00009F10109013EE4D14AE100BFA400002038
:1042E0001AB9D4F86CA0CDF82880079A01361D9B26
:1042F0000AF1020A53F8223001222AF8023C09F19D
:10430000010908F10108B9F1040F06D10B9B4FF028
:10431000000993F801B001330B93049B03990B44FC
:10432000984500F0A780C9F10305C0216D00C5F1D3
:10433000060341FA03F303EA0B03EB400793CFD1E3
:10434000012A10D13A46009708F1FF330A99204616
:10435000D4F8A850A8473146D4F84031E06E9847C9
:10436000079E3246CBE7079AC9E7059B9C681D9BD1
:10437000002B00F0FD801B9B93F800B0814B1B6865
:104380001B7C13F003030FD0022B40F0F180049B41
:104390000026D4F86CA00A9332461B9BDDF870907F
:1043A0000B93DDF8108043E01C9D4FF0F008039E56
:1043B000DDF86C90C5F101021D9901359200C2F142
:1043C000040348FA03F303EA0B0323FA02F2D4F8D6
:1043D000383131F822009847022D02BF99F801B018
:1043E000002509F10109013EE4D1C1E01AB9D4F870
:1043F0006CA0CDF82880079A01361D9B0AF1020AAD
:1044000053F8223001222AF8023C09F1010908F18F
:104410000108B9F1020F06D10B9B4FF0000993F888
:1044200001B001330B93039B04990B44984521D0B1
:10443000C9F10105F021AD00C5F1040341FA03F310
:1044400003EA0B03EB400793D0D1012A10D13A467F
:10445000009708F1FF330A992046D4F8A850A847DE
:104460003146D4F84031E06E9847079E3246CCE79B
:10447000079ACAE7002E7BD000973A460C9B20464D
:104480000A99D4F8A850A847D4F84031314667E0DB
:10449000059B9C681D9B002B6AD03A4B1B681B7CBC
:1044A00013F003030FD0022B62D1DDF818A0002512
:1044B000039AD4F86C802B465244DDF86CB0CDF8EA
:1044C0001CA00A9224E01B9D039B1B9A5B1B1344B8
:1044D000002B4DDD15F8012B1D99D4F8383131F83A
:1044E00022009847F0E71BB9D4F86C80DDF81CA0D7
:1044F0001D9B013508F1020853F8293028F8023CC9
:104500000123079A0132079207990A9A914219D01A
:104510001BF8019BB9F1000FE5D1012B10D1079BCE
:104520003A4600975146013B2046D4F8A860B04770
:10453000D4F840312946E06E98474D464B46E0E7B7
:104540004B46DEE70D9B069A13448DB100973A4621
:10455000D4F8A86051462046B047D4F840312946E7
:10456000E06E04E0099B0399D3F840311B9898470B
:104570001B9B01371A9A13441B93A1E50FB0BDE8AA
:10458000F08F00BFA400002010B50446FFF7EEFB3B
:10459000104B1021A468C4F8EC3020460E4BC4F830
:1045A000F0300E4BC4F8F4300D4BC4F8F8300D4B1E
:1045B000C4F8A0300C4BC4F8A430D4F8C830C4F808
:1045C0000431D4F8943098471023A363074B6364F5
:1045D00010BD00BF55400090653F0090BB3C00906F
:1045E000333C0090513F00905B3F0090F8DC00901E
:1045F0002DE9F04104460E46D0F88C302A211546AC
:104600009847E16A2046D4F89030B7B23144C1F3FC
:104610000F219847E16AD4F8903020463944C9B256
:104620009847E16AD4F8903020463144AEB2C1F3E5
:104630000F219847E16AD4F8903020463944C9B236
:104640009847D4F88C3020462B219847216BD4F81A
:10465000903020462944C1F30F219847216BD4F8AC
:10466000903020463144C9B29847216BD4F890303D
:1046700020462944C1F30F219847216BD4F890308C
:1046800020463144C9B29847D4F88C3020462C21BA
:10469000BDE8F04118472DE9F041044688461F4621
:1046A0002A21D0F88C301646069D9847E16A2046AC
:1046B000D4F890304144C1F30F219847E16AD4F80F
:1046C000903020464144C9B29847E16AD4F890300E
:1046D00020463944C1F30F219847E16AD4F890305D
:1046E00020463944C9B29847D4F88C3020462B2153
:1046F0009847216BD4F8903020463144C1F30F2104
:104700009847216BD4F8903020463144C9B298477D
:10471000216BD4F8903020462944C1F30F219847EB
:10472000216BD4F8903020462944C9B29847D4F878
:104730008C3020462C21BDE8F04118470E4A13B5B5
:104740000446516810686B4603C3D4F88C30204689
:1047500036219847636B02AAA18C2046134421F0AE
:10476000E00113F8083C1943D4F8903089B202B044
:10477000BDE81040184700BF58B5009013B5044677
:10478000D0F814312E209847216AD4F83031684689
:1047900003319847236A0DEB03021DF8033050786C
:1047A000DB088008DB0243EA4013907843EAD0003C
:1047B00002B010BD1FB50446D0F834312E20984702
:1047C000216AD4F85031684602319847226A0DEBCD
:1047D00042035B88C3F3C4005B1103F4FC6303432F
:1047E0003DF81200000200F47840184304B010BDF8
:1047F00070B505460C46D0F81431080A9847D5F82C
:104800001431E0B2BDE870401847D0F834310846A2
:104810001847D0F81831C8B21847D0F838310846D0
:1048200018470000082902D0102905D07047064B10
:10483000C0F88C30054B03E0054BC0F88C30054BBD
:10484000C0F89030704700BFF147009013480090C7
:104850000B4800901B480090F0B585B08568581A49
:104860000A9F0B9EBC1A0097D5F8A870013400FB74
:1048700004442846B847D5F814312E209847D5F877
:104880003031296A02A89847D5F83031032102A8AF
:1048900098479DF80930013C4FEA93029DF8083093
:1048A0004FEAD3034FEAC32343EA42139DF80A2099
:1048B00043EAD20326F8023BE6D105B0F0BDF0B5DD
:1048C00087B08568581A0C9F0D9EBC1A0097D5F8C2
:1048D000A870013400FB04442846B847D5F83431A9
:1048E0002E209847D5F85031296A02A89847D5F864
:1048F0005031022102A89847BDF80A30013CC3F3A9
:10490000C4024FEA631303F4FC6343EA0203BDF8F5
:1049100008204FEA022222F4FF6243EA020326F84B
:10492000023BE4D107B0F0BD10B50446FFF71EFA14
:10493000114A0021A368C3F8AC20104AC3F8BC1088
:10494000C3F8A8200E4AC3F8D010C3F8B0200D4A0F
:10495000C3F8B8200C4A10685268C3F8B400C3F812
:10496000C820DA8C094822F00302C3F8CC00DA84AC
:10497000074AC3F8942010BDF14500909746009077
:104980003D4700907D470090B800002059480090B6
:10499000254800900129024818BF0020704700BF39
:1049A000F8DC00901629024818BF0020704700BFAD
:1049B000A9540090006810B1C3681B6A184770477B
:1049C00037B580680D46FDF7F9FB024602A8B2F93B
:1049D00004301489B2F906102B801C445389013C21
:1049E00040F8042D0B446980AC80013BEB80FDF75F
:1049F000F3FB03B030BD00000E4B1B6873B50646D9
:104A0000186E0D46FDF7DAFBB0F9061002ABC4686C
:104A1000691AB0F9045043F8040D761B7600183675
:104A200004FB016544191846FDF7D6FB204602B089
:104A300070BD00BFA400002008B508461146FFF76E
:104A4000DBFF008808BD0000144B1B68F7B5164655
:104A50000D460746186EFDF7B1FB3146009028461B
:104A6000FFF7CAFF3B6904469B6898472388584074
:104A7000009B2080586960B1FDF7A0FB02AC836801
:104A8000324644F8040D29461B6898472046FDF736
:104A9000A3FB6846FDF7A0FB03B0F0BDA400002017
:104AA00073B51C46104B0D4616461B68186EFDF775
:104AB00085FB314600902846FFF79EFF009B04804F
:104AC000586960B1FDF77AFB02AC8368324644F85E
:104AD000040D29461B6898472046FDF77DFB684674
:104AE000FDF77AFB02B070BDA40000202DE9F7436A
:104AF0002C4C1E4680460F4623681546A146186E6C
:104B0000FDF75CFB0090406908B1FDF757FB019091
:104B100029463846FFF770FFD9F8003004461A7C62
:104B2000D2071FD5D8F810309B6898471FFA80F835
:104B3000019820B183682A4639461B689847238824
:104B4000013588EA0303B5422380009BDB681C44DF
:104B5000EEDD6846FDF740FB019B03B301A8FDF7BE
:104B60003BFB1CE0DB6B009AD3F80090019BD2F872
:104B70000C8063B101982A460135394683681B6869
:104B80009847AE42A4F800904444F3DAE1E7751B7D
:104B90000135013DA4F800904444FAD1D9E703B0AF
:104BA000BDE8F083A40000202DE9F04F2A4F1D46F8
:104BB000144687B03B6889468346DA6BC9EB050526
:104BC000186E126805F1010A0292FDF7F7FA214604
:104BD00004904846FFF710FF049A0646D3685069D0
:104BE000039388B1FDF7EAFA109B0DF118082246ED
:104BF0001B1B494648F8040D01330093534600F04F
:104C0000FFFB4046FDF7E8FA6D00BDF80880109BF9
:104C10009C421ADC3B681B7CDB070DD5DBF81030AF
:104C20009B689847B31E80B2711933F8022F424037
:104C30008B421A80F9D104E0524641463046FEF7D5
:104C4000CBF8039B01341E44E1E704A8FDF7C4FA46
:104C500007B0BDE8F08F00BFA400002007B50092A8
:104C6000FFF7A2FF03B05DF804FB00002DE9F04F51
:104C7000994D91B00E4602932B680A90186E0592DA
:104C80001D9CFDF79BFA0E90406908B1FDF796FA5E
:104C90000F9010A850F8083DDB680693FDF79CFACA
:104CA0001E9B0F9806EB030B50B12B681B7C9907DA
:104CB00006D11A9B5946059A0093029B00F0A0FB6F
:104CC00005995846FFF798FE1B9B0546102B34D1DB
:104CD0000F9B33B1029B0026DFF804924FEA430892
:104CE00012E07E4B1E68002EF4D01C9B2146029AD7
:104CF0000193069B00931A9BB0475BE344B91C9B4E
:104D000001361C44069B1D441A9B9E42F6DB4CE375
:104D1000002DF4D00F9F424621462846D9F8003096
:104D20009847002FEBD0BB685946059A3846D3F810
:104D300004A03244029BD047E1E71B9B172B44DDC4
:104D40006FF003034FF0000803FB0BF307936FF0C2
:104D5000010303FB0BF30493029B5B4408931A9B30
:104D6000984580F22283059B03EB080934B91C9B0C
:104D700008F101081C44069B1D44F0E7002DF6D005
:104D80000F9F37B1BB684A46594638465E68029B5A
:104D9000B047079B5E4604EB030A049BEB180393A2
:104DA0000A9B5AF826001B691B689847039B23F847
:104DB00016002FB1BB684A46314638461B689847F3
:104DC0000136089B9E42EBD1D1E71B9B082B40F09C
:104DD0008980029B013C059E5B00DFF8FC900793F5
:104DE0006FF0010303FB0BF30393029B5B440493FB
:104DF000059B611C1A9AF31A9A4240F3D6821F9BB4
:104E0000002B36D0D9F800301B7C13F0030309D0F7
:104E1000022B5AD1039BA246DDF83C805F46EB187B
:104E2000089321E0079B2246E9182B4612F8010F50
:104E30001F9F57F8200023F8020B8B42F6D144E065
:104E40001F9A52F82330089A22F81730B8F1000F51
:104E500006D0D8F808303246394640461B68984795
:104E60000137049BBB4230D01AF8013F002BF7D02A
:104E7000E6E7D9F800301B7C13F0030309D0022BBE
:104E800023D1039BA246DDF83C805F46EB180893D4
:104E900016E0134B2846029A1B68984715E0089ABB
:104EA00022F81730B8F1000F06D0D8F80830324693
:104EB000394640461B6898470137049B9F4204D0FF
:104EC0001AF8013F002BF7D0E9E7069B01361D4495
:104ED0001C9B1C448CE700BFA4000020A45A0220A5
:104EE000A8000020AF4B1F9A002A08BF1A461E9B3D
:104EF0005B001F920B931E9B9B000C93631C039300
:104F0000831C0793059B0493079B059A9C1E039B98
:104F100003F1FF3A049B9B1A1A9A9A4240F3458286
:104F20001B9B022B00F0C780042B00F06781012B34
:104F300040F02F829C4B1B68186EFDF73FF91E9BBB
:104F40009A4AC3F10805039B0E9013F8013CDDF863
:104F50003C90D65C1E9B029F1E41934B1B681B7CA2
:104F600003F00303022B1FD0032B58D0012B56D084
:104F7000BD42224628BF3D467F1B2B4606F001015D
:104F80001F98013B4FEA560650F8211022F8021BE9
:104F9000F4D104EB4504002F00F089801AF8013F9A
:104FA0000825824AD65CE3E71F9BD8469B88089376
:104FB000BD4228BF3D467F1BB9F1000F23D01EB96B
:104FC00004EB4504A84422E0F20709D5D9F80830DB
:104FD0004146049A48461B689847BDF82030238014
:104FE000013D08F1010804F1020410D07608E6E75B
:104FF000F30704F1020444BFBDF8203024F8023C5A
:10500000013D04D07608002EF2D104EB4504002FB8
:105010004DD01AF8013F0825644AD65CC8E70A9BC0
:10502000D8461B699B68984783B20993039B0893F2
:10503000BD4228BF3D467F1BB9F1000F1BD008EBD6
:105040000503A2460D93F0070CD5D9F80830414668
:10505000049A48461B689847BAF80030099A5340AA
:10506000AAF8003008F101080D9B0AF1020A76083F
:105070009845E8D10FE02A462346F10703F10203E1
:105080004FEA560641BF33F8021C0998414023F805
:10509000021C013AF1D104EB450447B1089B0825F5
:1050A000424A1B78D65C089B01330893C0E70EA8E0
:1050B000FDF792F86DE11E9BC3F10405039B13F805
:1050C000016CEDB20B9B9E40374B1B68F6B21B7C0C
:1050D00003F00303012B09D00AD3022B40F05981BE
:1050E0000F9B5F46DDF80880089336E0029B7EE068
:1050F000029B9D422146C8BFDDB25B1B2A46B00918
:105100001F9F013AB60057F8200012F0FF02F6B2D6
:1051100021F8020BF3D1013DEDB2013504EB45045A
:10512000002B00F036811AF8016F0425E1E716F034
:10513000C00F25D109F101090D9BB6009945F6B2C2
:10514000F5D16B1C013704EB43042F44B8F1000F79
:1051500000F01F811AF8016F0425454507F101038E
:10516000B946C8BF5FFA88F5C5EB0808013DEDB246
:105170002B440D936FF0010303FB07430993D6E71C
:105180001F9AB30952F82330099A22F81930089B64
:10519000002BCFD09B684946049A1B680898984713
:1051A000C8E700BF2CDD0090A400002084DD009043
:1051B00016F0C00F02F1FF324FEA860601F102013C
:1051C00018BF31F8020CF6B21CBF80F0FF0021F8C6
:1051D000020C12F0FF02EBD1013DEDB2013504EB00
:1051E0004504002B00F0D5801AF8016F04259D427C
:1051F0002146C8BFDDB25B1B2A46D9E7039B0C9A48
:1052000013F8013C93406D4A1268DDB2127C02F043
:105210000302012A03D008D3022A3AD0B9E01E9B28
:10522000029AC3F10203DBB2ACE01E9B5BB12D0915
:105230001F9B039A53F8253092462380029B079CBC
:10524000013B157800E0029B012B19DD5910221D4E
:1052500003F001030AEB01001F9F2E0905F00F0563
:10526000043257F8266057F8255022F8086C3E465D
:1052700022F8065C1AF8015F8245EDD104EB810447
:10528000002B00F086802D091F9B53F825302380CA
:105290007FE01E9A0F9EC2B113F0F00F0BD02D09C4
:1052A0001F9B53F8253023802EB1B3685946049ACA
:1052B00030461B689847029B0BF10107079C03F1DE
:1052C000FF38039B1D789A460FE0DDF808805F46A3
:1052D0000BE015F0F00F0CD115F00F0517D10434C9
:1052E0000237A8F102081AF8015FB8F1010FF0DCEB
:1052F0001AE02B091F9A52F823302380002EEBD09E
:10530000B3683946049A30461B689847E4E71F9B08
:1053100053F825306380002EE1D0B368791C049ADD
:1053200030461B689847DAE7B8F1000F31D02D09F5
:105330002FD01F9B53F82530238056B3B3683946CE
:10534000049A30461B68984723E015F0C00F01F11E
:10535000FF314FEA051500F1020018BF30F8026C6A
:10536000EDB21CBF86F0FF0620F8026C11F0FF01C1
:10537000EBD1013BDBB2013304EB43044AB11AF831
:10538000015F022393422046C8BFD3B2D21A194606
:10539000DBE7049B1C9A01330493039B1344069A96
:1053A0000393079B13440793AEE50F9B13B10FA81C
:1053B000FCF712FF11B0BDE8F08F00BFA400002081
:1053C000082904D0006820B1C3689B6A18471020E0
:1053D00070474FF0FF30704737B50546FCF7EEFEDB
:1053E000848902AB013C43F8040D24B28481184641
:1053F000FCF7F2FE14B92846FCF70EFF03B030BDEF
:105400002DE9F843089C0546884699461444AB6844
:10541000561C414628465F684B46B847B442324660
:10542000F5D1BDE8F8832DE9F84FDDF828B08146C5
:105430000D4616461F46DDF82CA01446884639F85E
:10544000020BD847D047013C48F8040BF7D11F2F77
:1054500006D83A4631462846BDE8F84F01F0FCBD73
:10546000BDE8F88F2DE9F84FDDF828B080460D46ED
:1054700016461F46DDF82CA08946044614F8010B99
:10548000D847D047331B49F8040B18EB030FF5D16D
:105490001F2F06D83A4631462846BDE8F84F01F09E
:1054A000DBBDBDE8F88F00002DE9F04F9BB005464D
:1054B00008910992002800F09983FCF77FFE1AAB4F
:1054C000446943F81C0D1846FCF786FE284601F097
:1054D00009FF08280746A54E02DD002C00F0C9810F
:1054E0000123002728460DF1680919930D93189799
:1054F000FCF764FE0268B0F90A3012690E93536833
:10550000326849F8140D0469D0F81480D0F80CA062
:10551000B0F908B0507C0C93FEF7E8F832680B90B5
:10552000507CFEF701F90A904846FCF755FE082C1E
:105530000A9A0D9B04D9102C8CBF0423022305E08A
:10554000012C03D118AB0D940A9301E00D930A9737
:105550000C9B934200F0DF803368587CFEF7ECF838
:105560000F904FEA8B00FCF7B7FF1090002800F077
:105570003D83284601F0EEFE0546B8F1000F00F02D
:10558000B9804046FCF71AFE05EB0A03DDF82490CB
:105590001193002316900993119B099ACAEB0307F4
:1055A0000E9B934240F3A280002316980DF15C08F5
:1055B000099A1793836841465B6998478345054676
:1055C00028D11098FCF7FAFD0F9B082C0146019397
:1055D0005A460C9B1490384600930B9B02D9FFF758
:1055E00022FF01E0FFF73EFF0A9B1AAD08985A46DA
:1055F0000593494655F8183D0493002303930B9BEC
:105600000293012301930093FDF7A2FD2846FCF7C6
:10561000E3FD62E0012C02D04FF0010857E0002DBD
:105620005BD017982A46089E494600F00703CDF83C
:105630000CA006930A9B0593082390FBF3F33B44CD
:10564000304404930123029301930093FDF794FCEB
:10565000179B169841461D44099A836817955B6904
:1056600098470546DBE71098FCF7A8FD0F9B01461D
:1056700014900193082C0C9B2A4617980D9E0093BA
:1056800000FB06700B9B25D9FFF7CDFE0A9B2A462F
:10569000179849460593149B089E049300233044B1
:1056A000CDF8048003930B9BCDF800800293012377
:1056B000FDF74EFD14A8FCF78FFD179B169817A950
:1056C0001D44099A836817955B6998470546002D24
:1056D000C9D102E0FFF7C6FED8E7099B09F101092D
:1056E00001330993119B5344119355E716A8FCF716
:1056F00073FD0EE00A9B5A46049005930123CDF8F2
:105700000CA00193009302940E9B09990898FDF751
:105710001FFD109868E2284601F01CFE0746B8F10C
:10572000000F00F09A8000254046FCF747FD1690D8
:105730000E9BAB4240F38D80002316980DF15C0860
:105740002A461793836841465B6998478345064616
:1057500026D12E46169806F10109414683684A462D
:105760005B699847834503D14E46F3E7A4000020C8
:105770000A9BC5EB060809995A4608F101080593EA
:10578000012304972944CDF80CA0019335460093DA
:105790004346029408980AFB0877FDF7D9FC56E0C7
:1057A000012C099B04D02B444FF001090B932BE0F3
:1057B00003EB0509A0462EB3DDF85CE032460898FD
:1057C00049460EF00703CDF80CA07044CDF80880D0
:1057D00006930A9BCDF8048005930823CDF800803A
:1057E0009EFBF3F33B4404930123FDF7C5FB179B9A
:1057F00016982A461E4417A9836817965B6998472E
:105800000646D8E7574422E0002EFBD00A9B3246DA
:10581000DDF85CE005930D9B089803FB0E730B9974
:105820007044CDF80CA0049301230294CDF80490A9
:10583000CDF80090FDF78CFC179B16982A461E4465
:105840004146836817965B6998470646DCE7013551
:105850006EE716A8FCF7C0FCC8E10A9B5A46049004
:1058600005930123CDF80CA00193009302940E9BA5
:105870003AE02846FCF7A2FC83461AA8BBF90A3096
:1058800040F810BD0B93DBF80020DBF80C30D2F8A9
:1058900010800C93BBF90840FCF79EFC3268D8F8E6
:1058A0000490507CA14A52F82020166933680A936C
:1058B000FDF71CFF08280C9B06D910288CBF4FF061
:1058C000040A4FF0020A01E04FF0010AB04510D17E
:1058D0000022039301230BF1180005922246019345
:1058E00000930B9B0490029709990898FDF730FCF0
:1058F0007CE1202F40F0A2800AFB04F0FCF7ECFDD5
:105900000D90002800F07281FCF758FC1890284692
:105910004FEA840BFCF752FC16904FEACA02336937
:1059200000F118050C9273B3DDF824804FF00109E3
:10593000BAF1020F05D0BAF1040F02D0BAF1010F8B
:1059400006D128465D443769534622461899B84720
:105950000023189ACDF804904146059308F10107F9
:1059600003930C9B0492224602930123CDF80090EE
:105970000898FDF7EDFB0B9B099A13449F4200F03A
:105980002C81B846D4E7099F1E460B9B4FF00109B6
:105990003B440993BAF1020FDDF8608016D0BAF1EA
:1059A000040F24D0BAF1010F30D143462A4652F8F1
:1059B000040B0E930A9B0B9298470E9B0B9A03F8CD
:1059C000010BE11A18EB010FF1D11EE043462A4604
:1059D000A04652F8040B0E930A9B0B9298470E9B1D
:1059E000B8F101080B9A23F8020BF2D10DE02A4618
:1059F000234652F8040B0E930A9B0B9298470E9B7A
:105A000048F8040B013B0B9AF3D15D44189B2246E6
:105A100005963946049307F101080C9B03960293FF
:105A20000123CDF80490CDF800900898FDF790FB85
:105A3000099B434500F0D1804746ABE7102F40F06B
:105A4000D58004FB0AF0FCF747FD0D90002800F01C
:105A5000CD80FCF7B3FB18902846FCF7AFFB1690FF
:105A6000336900F1180713B1D8F8143053B94FEA6D
:105A7000CA03099D66004FF0000B0C930B9B2B444F
:105A8000099383E0B0F908008000FCF725FD0C9035
:105A900018B1FCF793FB179001E00C9B1793179B31
:105AA000002B00F09A806300DDF824B00A934FEADF
:105AB000CA030E93BAF1020FDDF8609006D0BAF176
:105AC000040F05D0BAF1010F11D101E0534600E0F7
:105AD0000223384622461799D8F81450A84753464F
