:020000040800F2
:100000000000082035050008D7070008D9070008B8
:10001000DB070008DD070008DF070008000000001C
:10002000000000000000000000000000850500083E
:10003000E10700080000000085050008E50700084A
:100040008505000885050008850500088505000868
:100050008505000885050008850500088505000858
:100060008505000885050008850500088505000848
:100070008505000885050008850500088505000838
:100080008505000885050008850500088505000828
:100090008505000885050008850500088505000818
:1000A0008505000885050008850500088505000808
:1000B0008505000805080008850500088505000875
:1000C00085050008850500088505000885050008E8
:1000D00085050008850500088505000885050008D8
:1000E00085050008850500088505000885050008C8
:1000F00085050008850500088505000885050008B8
:1001000085050008850500088505000885050008A7
:100110008505000885050008850500088505000897
:100120008505000885050008850500088505000887
:100130008505000885050008850500088505000877
:100140008505000885050008850500088505000867
:100150008505000885050008850500088505000857
:100160008505000885050008850500088505000847
:1001700085050008850500088505000800000000C9
:100180008505000885050008850500088505000827
:100190008505000885050008850500088505000817
:1001A000F9070008850500086D3A00088505000874
:1001B00085050008850500088505000885050008F7
:1001C0008505000885050008C1420008850500086E
:1001D00085050008850500088505000885050008D7
:1001E00085050008850500088505000885050008C7
:0801F0008505000885050008E3
:1001F80010B5054C237833B9044B13B10448AFF359
:1002080000800123237010BDB8000020000000000A
:10021800D49C000808B5034B1BB103490348AFF34E
:10022800008008BD00000000BC000020D49C00082D
:1002380053B94AB9002908BF00281CBF4FF0FF3145
:100248004FF0FF3000F070B9ADF1080C6DE904CE45
:1002580000F006F8DDF804E0DDE9022304B0704799
:100268002DE9F047089E0D4604460F46002B4AD15B
:100278008A42944665D9B2FA82F343B102FA03FC82
:10028800C3F120029F4020FA02F217439C404FEA34
:100298001C4E1FFA8CF5B7FBFEF1220C0EFB1177F2
:1002A80042EA074201FB05F090420AD91CEB020220
:1002B80001F1FF3780F01C81904240F21981023928
:1002C8006244121AA4B2B2FBFEF00EFB102244EAFA
:1002D800024400FB05F5A5420AD91CEB040400F111
:1002E800FF3280F00781A54240F20481644402385D
:1002F80040EA0140641B00211EB1DC400023C6E92E
:100308000043BDE8F0878B4208D9002E00F0ED804D
:100318000021C6E900050846BDE8F087B3FA83F175
:10032800002949D1AB4202D3824200F2F880841AF4
:1003380065EB030201201746002EE2D0C6E900470C
:10034800DFE702B9FFDEB2FA82F3002B40F09080BB
:100358008A1A4FEA1C471FFA8CFE0121B2FBF7F5F7
:1003680007FB1520220C42EA00420EFB05F09042E2
:1003780008D91CEB020205F1FF3802D2904200F2C4
:10038800CB804546121AA4B2B2FBF7F007FB102245
:1003980044EA02440EFB00FEA64508D91CEB0404FF
:1003A80000F1FF3202D2A64500F2BB801046A4EB52
:1003B8000E0440EA05409FE7C1F120078B4022FA6E
:1003C80007FC4CEA030C05FA01F420FA07F3FD4098
:1003D8004FEA1C492343B5FBF9F81FFA8CFE09FBC9
:1003E80018551C0C44EA054408FB0EF5A54202FA10
:1003F80001F200FA01F00BD91CEB040408F1FF3AF2
:1004080080F08880A54240F28580A8F10208644403
:10041800641B9DB2B4FBF9F309FB134445EA044499
:1004280003FB0EFEA64508D91CEB040403F1FF35B7
:100438006CD2A6456AD9023B644443EA0843A3FB4D
:100448000295A4EB0E04AC42C846AE4656D353D030
:1004580056B1B0EB080264EB0E0404FA07F7CA4081
:10046800CC401743C6E9007418460021BDE8F08760
:10047800C3F1200102FA03FC20FA01F225FA01F186
:100488009D402A434FEA1C471FFA8CFEB1FBF7F048
:1004980007FB1015110C41EA054100FB0EF58D42D2
:1004A80004FA03F408D91CEB010100F1FF382FD23C
:1004B8008D422DD902386144491B92B2B1FBF7F540
:1004C80007FB151142EA014205FB0EF1914208D9DA
:1004D8001CEB020205F1FF3816D2914214D9023DF5
:1004E8006244521A45EA004138E73146304608E787
:1004F8003946E6E61046FBE64845A9D2B9EB0208BC
:1005080065EB0C0E013BA3E74546EAE72B4694E76B
:100518004046D1E7D0467BE7023D624432E70846D1
:100528000AE76444023842E7704700BFDFF834D076
:10053800002103E00C4B5B58435004310B480C4B33
:1005480042189A42F6D30B4A02E0002342F8043BD1
:10055800094B9A42F9D300F017FD09F085FB00F02A
:100568002BF870470000082038E70008000000203A
:10057800B8000020B80000209C9D0420FEE7000081
:1005880008B504F0A1FC0A4804F0DEFB05F020FEE3
:10059800044605F025FE143800EBD072A4F164007F
:1005A80000EBD07052104110024804F003FFFEE740
:1005B800D0A3000818E7000800B593B040F2011571
:1005C80000F0CCFD0123002405A8ADF8143048F252
:1005D8001F734FF040460895CDE9064300F0DCFD57
:1005E800614B05A8ADF81450CDE906634FF480338C
:1005F800089300F0D1FD40F201234FF0204C05A8EC
:10060800ADF81430594BCDE906C3594B089300F0A7
:10061800C3FD042000F0B0FDBFF34F8FBFF36F8F11
:10062800544AC2F85042BFF34F8FBFF36F8F5369DC
:1006380043F400335361BFF34F8FBFF36F8FC2F89A
:100648008440BFF34F8FD2F8803043F6E074C3F391
:10065800C900C3F34E335B0103EA0406014646EAC8
:1006680081750139C2F86052F9D2203B13F1200F8D
:10067800F2D1BFF34F8F536943F480335361BFF313
:100688004F8FBFF36F8F00F0C9FC01264FF4803302
:100698000224192505A80F94CDE905634FF48003BA
:1006A800CDE90B434FF4C873CDE90D5309231093DB
:1006B80001F0A4FD18B1322000F0D8FCFBE701F0EE
:1006C80065FD18B1322000F0D1FCFBE70F23029042
:1006D8004FF4A0500721CDE900344FF48053CDE901
:1006E8000303684601F07AFF054618B1322000F08E
:1006F800BDFCFBE700F0D4FA1F4B44F620621F4C08
:100708001B686561E560E561251DB3FBF2F31C4AD2
:10071800013B2846626040F2F31223602261A36025
:1007280002F058FC00B1FEE7284602F0FBFA00B1DF
:10073800FEE700F0B5FA304600F0B2FA00F0E6FB4A
:10074800104B1A6B42F480521A631B6B03F48053EC
:100758000593059B04F012FC304684F8506008F0BD
:1007680019FEFFF70DFFFEE7180000030C00000359
:100778000101000100ED00E018000020D400002075
:1007880000040040003802400A4B07B51A6C0021EB
:100798001D2042F002021A6401221B6C03F00203BE
:1007A8000193019B00F086FC1D2003B05DF804EB6B
:1007B80000F0B2BC00380240002008B500F092FA00
:1007C8000120BDE8084000F08DBAFFF7F5BF70477B
:1007D800FEE7FEE7FEE7FEE77047000008B500F019
:1007E80033FC024A13680133136008BDB49904202E
:1007F800014801F0FFBA00BF7C020420014802F062
:10080800D3BA00BFD800002038B504460D460020F2
:10081800C94903F0B3F8C949032003F0AFF8C84940
:10082800002003F0ABF8C749022003F0A7F8C44939
:10083800002003F0A3F8C449002003F09FF80A2021
:1008480000F05AFAC149002003F098F8C049002086
:1008580003F094F80A2000F04FFABE49002003F094
:100868008DF8BD49002003F089F8BC49002003F049
:1008780085F8BB49002003F081F8BA49002003F04D
:100888007DF8B949002003F079F8AB49002003F05E
:1008980075F8B649002003F071F8B549002003F057
:1008A8006DF8B449002003F069F8B349002003F05B
:1008B80065F8B249002003F061F8B149002003F05F
:1008C8005DF8B049002003F059F8AF49002003F063
:1008D80055F8A349002003F051F89749002003F088
:1008E8004DF8AA49022003F049F8A949002003F06D
:1008F80045F8A849002003F041F8A749002003F073
:100908003DF8A649002003F039F8A549002003F076
:1009180035F8A449002003F031F89549002003F088
:100928002DF8A149002003F029F89349002003F08D
:1009380025F89E49002003F021F89D49002003F086
:100948001DF89C49022003F019F87D49002003F0A6
:1009580015F89949062003F011F89849002003F08A
:100968000DF897490E2003F009F89649002003F086
:1009780005F895490E2003F001F89449002002F08B
:10098800FDFF93490A2002F0F9FF9249002002F086
:10099800F5FF9149002002F0F1FF6949002002F0BB
:1009A800EDFF8E490A2002F0E9FF8D49002002F090
:1009B800E5FF8C490F2002F0E1FF8049002002F09A
:1009C800DDFF89490F2002F0D9FF7E49002002F09F
:1009D800D5FF86490A2002F0D1FF7C49002002F0A9
:1009E800CDFF83490F2002F0C9FF7A49002002F0A9
:1009F800C5FF80490F2002F0C1FF7F49002002F0A7
:100A0800BDFF7E490A2002F0B9FF7D49002002F0AF
:100A1800B5FF7C490A2002F0B1FF4949002002F0E5
:100A2800ADFF79490A2002F0A9FF6D49002002F0C4
:100A3800A5FF76490F2002F0A1FF6049002002F0CF
:100A48009DFF73490F2002F099FF5E49002002F0D4
:100A580095FF70490A2002F091FF5C49002002F0DE
:100A68008DFF6D490F2002F089FF5A49002002F0DE
:100A780085FF6A490F2002F081FF3D49002002F0FE
:100A88007DFF6749002002F079FF6649002002F0E7
:100A980075FF6549002002F071FF6449002002F0EB
:100AA8006DFF6349002002F069FF2349002002F02E
:100AB80065FF6049032002F061FF1F49002002F032
:100AC8005DFF1D49002002F059FF5B49102002F02C
:100AD80055FF1949002002F051FF5849102002F033
:100AE8004DFF0020564902F049FF782000F004F934
:100AF800002C00F0C780022C03D15249002002F0DC
:100B08003DFF012D0BD15049002002F037FF4F491E
:100B1800042002F033FF4E49042002F02FFF4D4914
:100B2800002002F02BFF4C49002002F027FF4B4920
:100B3800002002F023FF93E0EC9C0008EE9C0008E4
:100B4800F29C0008F49C0008F79C0008F99C000837
:100B5800FB9C0008FD9C0008FF9C0008019D000804
:100B6800039D0008059D0008079D0008099D0008D1
:100B78000B9D00080D9D00080F9D0008119D0008A1
:100B8800139D0008159D0008179D0008199D000871
:100B98001C9D00081E9D0008209D0008229D00083D
:100BA800249D0008269D0008289D00082A9D00080D
:100BB8002C9D00082E9D0008319D0008389D0008D6
:100BC8003A9D0008499D00084B9D00085A9D000861
:100BD8005C9D0008679D0008699D00086B9D0008E2
:100BE800769D0008789D0008889D0008989D00085B
:100BF800A39D0008B39D0008C39D0008C59D00087B
:100C0800D09D0008D29D0008DD9D0008E89D0008E1
:100C1800F89D0008089E0008139E0008239E0008FF
:100C2800339E0008359E0008379E0008399E00084C
:100C38003B9E00083D9E0008419E0008529E000809
:100C4800639E0008659E0008699E00086B9E000868
:100C5800709E0008759E0008779E0008799E00081F
:100C68000A49002002F08AFE0949002002F086FEA7
:100C78000849002002F082FE0749002002F07EFEAB
:100C8800002038BD0549204639E700BF7B9E000893
:100C98007D9E0008EC9C00087F9E0008679E000867
:100CA8007FB50E4B01A91A6B42F400721A631B6BD5
:100CB80003F400730093009B094B53F8202003EBC7
:100CC8008000019201228068CDE902220322049269
:100CD80000F07AFE07B05DF804FB00BF0038024060
:100CE80000000020034B03EB800233F820109068CB
:100CF80000F051BF0000002000F0B8B92DE9F7431B
:100D0800214C102701264FF00008E519214681469D
:100D18004FF6FF722846CDF80480C4E90067C4E99D
:100D2800026801F0C8FF304600F0A0F9022321460E
:100D38004FF6FF722846C4E90037C4E9026801F09B
:100D4800BAFF032321464FF6FF722846C4E900374D
:100D58000823C4E9023801F0AEFF4FF40C732146B2
:100D68004FF6FF72019304232846A660C4E90037B2
:100D7800019BE36001F09FFF4946284603B0BDE8A8
:100D8800F04301F0B7BF00BF28010020564B9A6B13
:100D980042F0010270B59A638EB09A6B032506463D
:100DA80009A902F00102514800240192019A1A6B24
:100DB80042F480021A631A6B02F480020292029AC9
:100DC8001A6B42F008021A631A6B02F008020392C7
:100DD800039A1A6B42F010021A631A6B02F010029F
:100DE8000492049A1A6B42F020021A631A6B02F0FA
:100DF80020020592059A1A6B42F040021A631A6B98
:100E080002F040020692069A1A6B42F080021A63B8
:100E18001A6B02F080020792079A1A6B42F48072EA
:100E28001A6302221B6B03F480730893089B012347
:100E3800CDE90A230C23CDE90C534CF20373099333
:100E480000F0C2FD4FF6837309A92948099300F001
:100E5800BBFD4FF63F0309A92648099300F0B4FDEE
:100E680048F2371309A92448099300F0ADFD4FF65D
:100E78002C7309A92148099300F0A6FD40F2FF63ED
:100E880009A91F48099300F09FFD1E4B80224FF4CB
:100E980000714FF480505C671C66C3E912424FF43E
:100EA8008062C3E914124FF48042C3E916024FF47A
:100EB8000032C3E91B54C3E919241D46124A45F8F8
:100EC800442F28463563DE6700F026FA284600F0EE
:100ED800A5F922460F21382000F0ECF8382000F060
:100EE8001BF90EB070BD00BF00380240000C024074
:100EF800001002400014024000180240001C02408A
:100F080000200240280100201064024010B51B4B4D
:100F180007211B4C042220204FF4006C236102237C
:100F2800E261C4F8BC30C4E92931C4E92D33402357
:100F3800C4E92B21C4E9080300214FF4C07304F16C
:100F48001000A163C4E90A314FF48053C4E90511C4
:100F5800C4E90CC3FFF71AFF04F1A401094CA1F17D
:100F6800940001F088FE003818BF0120207040F27C
:100F78000360FFF7C3FE207810BD00BF400100A04A
:100F880028010020140000200F490020D1F88830E3
:100F980043F47003C1F888300C4B1A6842F0010220
:100FA8001A6098601A6822F0847222F480321A60FB
:100FB800074A5A601A6822F480221A60D8604FF0F3
:100FC80000638B60704700BF00ED00E0003802400E
:100FD800103000247047000070B50E4E4FF47A733D
:100FE80005463278B3FBF2F30B4A1068B0FBF3F016
:100FF80000F0A0F8044650B90F2D08D8024629463B
:101008004FF0FF3000F056F82046756070BD0120A3
:10101800FCE700BF1C0000201800002008B5094BA1
:1010280003201A6842F400721A601A6842F4807247
:101038001A6000F02DF80F20FFF7CEFFFFF7CAFF68
:10104800002008BD003C0240034A044B11681B788D
:101058000B441360704700BF480200201C000020AA
:10106800014B1868704700BF4802002038B5044695
:10107800FFF7F6FF0546631C1EBF044B1B78E418F8
:10108800FFF7EEFF431BA342FAD338BD1C00002034
:1010980007490302CA6803F4E06322F4E062120419
:1010A800120C134343F0BF6343F40033CB60704723
:1010B80000ED00E0164B30B5DC68C4F30224C4F13F
:1010C8000703251D042B28BF0423062D4FF0FF35E9
:1010D8008CBF033C002405FA03F3002805FA04F545
:1010E80021EA030322EA050203FA04F343EA0203AE
:1010F8004FEA0313DBB206DB00F1604000F5614004
:1011080080F8003330BD00F00F00024A1354F9E7AD
:1011180000ED00E014ED00E0002807DB41090123A1
:1011280000F01F00024A834042F82130704700BF98
:1011380000E100E00138B0F1807F0BD24FF0E023EE
:10114800054AF0215861002082F82310072298618F
:101158001A6170470120704700ED00E0BFF35F8F10
:10116800044B5A6A22F480325A620022C3F894204F
:10117800704700BF00ED00E0064B40F00100C3F8E7
:1011880094005A6A42F480325A62BFF34F8FBFF319
:101198006F8F704700ED00E04378144A10B5C2F82D
:1011A80098300178E9B14368C2F89C30C37A047B6F
:1011B8001B0643EA04730B43817A43EAC143417B2C
:1011C80043EA8143817B43EA4143C17B43EA0143CC
:1011D800417A43EA0123017A43EA4103C2F8A03085
:1011E80010BDC2F89C10C2F8A010F9E700ED00E0AD
:1011F80003681821DAB223F47F73103A23F003034B
:10120800B2FBF1F110B55F2A034C88BF0433615C6F
:101218008365C165184610BD999E000870B50446DF
:10122800FFF71EFF0546002C71D00223226884F8C0
:101238003530002384F83430136823F00103136039
:1012480022681368D8072ED413683248A169184059
:10125800D4E901352B43E5682B4325692B436569A0
:101268002B43E5690B432B43256A2B430343606AF1
:10127800042802BFD4E90B5635432B4304281360D6
:10128800536923F0070343EA000332D1A06AE56AF1
:10129800034375B391B9012820D030F0020128D159
:1012A800E90126D51DE0FFF7DBFE401B0528C7D95D
:1012B80020230320636584F8350070BDB1F5005F15
:1012C80013D1032815D801A151F820F0EB1200081A
:1012D800A9120008EB120008E5120008B5F1C07F5A
:1012E80007D1402301206365E5E70228F9D90328DF
:1012F800D6D053612046FFF77BFFE26D3F23934032
:10130800836000200123606584F83530D5E701202B
:10131800D3E700BF3F8010E038B5054620B390F80A
:101328003530022BDCB21DD0036800241A6822F085
:1013380001021A6021221C605C609C60DC601C61F8
:101348005A61FFF755FFEA6D3F23934083606C6550
:1013580085F8344085F83540C5E90F44C5E911449E
:10136800C5E91344204638BD0124FBE72DE9F041C7
:1013780007460D4614461E46FFF772FE80463A6839
:10138800536FDB070AD544EA06230699002043EA8F
:10139800014343EA8513D366BDE8F081FFF760FE99
:1013A800A0EB0800B0F57A7FE9D90320F4E770478D
:1013B80073B50D460446002800F0A980437C0BB99C
:1013C800FFF7F5FF03236374002300932368D3F822
:1013D800302442F08072C3F83024D3F8303403F05C
:1013E80080730093009BFFF73BFE06462268D2F805
:1013F8000C34D9047AD5D2F8303423F45E3323F48C
:10140800FE73C2F83034D2F83014D5E90003DB0299
:1014180043EA8003A86843EA004301200B43C2F86B
:10142800303400230193D2F8303443F00103C2F87A
:101438003034D2F8303403F001030193019BFFF7F5
:1014480015FEFFF70DFE06462368D3F80C24D205D7
:1014580056D5D3F8A02046F2A810616842F00602DB
:10146800C3F8A020D3F8942022F00302C3F89420F4
:10147800D3F894200A43E16842F00102C3F89420AB
:10148800D3F8A42022F00302C3F8A420D3F8A420A0
:101498000A43A168C3F8A4209A6822F0FF029A6060
:1014A8009A680A431B499A606A68012A38BF012270
:1014B8004A43A96801F003018A4029684143002092
:1014C800B2FBF1F2D3F8181421F03F01C3F8181455
:1014D800D3F818140A43C3F81824C3F8C400C3F88F
:1014E800C80001236061A061637407E0FFF7B8FDDD
:1014F800801BB0F57A7F7FF679AF032002B070BD0C
:10150800FFF7AEFD801BB0F57A7F9DD9F5E7012086
:10151800F4E700BF00093D00704730B5054685B0C7
:10152800002842D003230024437403680094D3F8AE
:10153800042422F00802C3F80424D3F8042402F097
:1015480008020092009A01945A6822F001025A6037
:101558005A6802F001020192019AD3F8A02022F001
:101568000602C3F8A0200294D3F8302422F0010226
:10157800C3F83024D3F8302402F001020292029A10
:101588000394D3F8302422F08072C3F83024D3F8BF
:10159800303403F080730393039BFFF7BDFF2046AD
:1015A8006C612C746C7405B030BD0120FBE770478A
:1015B8000368D3F80C24D10710B5044608D5D3F82E
:1015C8000824D20704D50122C3F8102402F06CFACB
:1015D8002368D3F80C24910709D5D3F80824920777
:1015E80005D502222046C3F8102402F079FAA3692F
:1015F800002B4ED02168D1F8BC20D1F8C4301A4055
:10160800D1F8C030D1F8C8100B4091B219B1616956
:1016180041F00101616112F4F81F03D0626942F0E0
:1016280002026261D80703D5626942F0040262616E
:10163800990703D5626942F00802626113F00C0F42
:1016480003D0626942F010026261DA0603D562696A
:1016580042F020026261980603D5626942F04002B6
:101668006261590603D5626942F0800262611A0616
:1016780003D5626942F48072626113F4F85F03D0A3
:10168800636943F400736361636913B12046FFF72C
:101698008EFF10BD30B5037C012B6AD003680C683F
:1016A8005A6B42F001025A63D3F8002422F0010277
:1016B800C3F80024D3F8002442F00102C3F8002440
:1016C800DA6822F00302DA60DA682243DA605A69DB
:1016D80022F007025A615C69D1E906522A434D6932
:1016E8002A4322434C685A611A6922F00F021A6190
:1016F8001A6922431A61D3F8002422F00E02C3F8B3
:101708000024D3F8002442EA44028C68C3F8002479
:101718005A6E120C12045A665A6E22435A66D3F84D
:10172800002422F0F002C3F80024D3F80044D1E9E1
:1017380003252A434D6A2A430D6A896A2A432243AC
:10174800C3F800249A6E22F001029A669A6E0A4340
:101758009A66D3F8082442F00102C3F80824D3F8A3
:10176800082442F00202C3F8082400230374184630
:1017780030BD0220FCE7000030B5037C012B2AD0E5
:101788000268164B946E23409366946ED1E9003537
:101798002B438D682B43CD682B430D692B434D6933
:1017A8002B438D692B43CD692B430D6A2B434D6A1F
:1017B8002B438D6A2B43CD6A096B2B4323439366D6
:1017C800936E23F002039366936E0B439366002394
:1017D8000374184630BD0220FCE700BFFF80F0FE0E
:1017E800037C012B0BD00368DA6A22F01F02DA624D
:1017F800DA6A1143D962002303741846704702203D
:10180800704730B5037C012B35D0D1E900439C42A9
:1018180038BF1C460368D3F8982002F0FC22C3F8AE
:101828009820D3F8982042EA04422243C3F898202B
:10183800D3F89C2002F40042C3F89C20D3F89C40C3
:10184800D1E90225120642EA05420D6949692A438F
:101858002243C3F89C20D3F8A42022F47F42C3F883
:10186800A420D3F8A42042EA0122C3F8A42000232C
:101878000374184630BD0220FCE7037C82B0012BBC
:101888001CD0026800230093516841F001015160A7
:10189800516801F00101009100990193D2F80414F4
:1018A80041F00801C2F80414D2F80424037418465D
:1018B80002F008020192019A02B070470220FBE789
:1018C800037C012B0AD00268D2F8043443F00403E5
:1018D800C2F8043400230374184670470220704786
:1018E80037B5057C0446012D09D001250574069DF0
:1018F8000095FFF73BFD0023237403B030BD0220A1
:10190800FBE72DE9F84F1C46037C06460F46012BE2
:101918001546DDE90A9855D001230374FFF7A0FBAB
:101928008346D6F800C0DCF8743013F0010A1CD0E6
:10193800032C21464FF0000228BF03218A4220D100
:10194800A31A4244CCF870901BBB013445EA8711B6
:1019580018462202240292B204F47F0441EA0205E6
:101968002543CCF86C50337409E0FFF779FBA0EB02
:101978000B00B0F57A7FD4D9032086F810A0BDE813
:10198800F88F18F802300132D000834049EA030981
:10199800D4E7042B4FF000009E46014628BF4FF0C5
:1019A800040E12F801804FEAC109013108FA09F85A
:1019B8008E4540EA0800F4D1A3EB0E037244CCF83C
:1019C8007000C1E70220DAE72DE9F74F0023DFF8BE
:1019D800B8916B4A01240D689C4004EA050CAC439D
:1019E80040F0B4804D684FEA4308032605F003042D
:1019F80006FA08F6671EF643012F34D8876807EA07
:101A0800060ECF6807FA08F747EA0E0787604768A7
:101A180027EA0C0EC5F300179F4047EA0E074760F8
:101A2800C768022C07EA060E8F6807FA08F747EA24
:101A38000E07C76019D14FEAD30A03F0070B4FF01E
:101A48000F0E00EB8A0A4FEA8B0BDAF820700EFAB9
:101A58000BFE27EA0E0E0F6907FA0BF747EA0E0787
:101A6800CAF8207001E0032CDAD1076804FA08F4F8
:101A780015F4403F07EA060744EA0704046065D006
:101A8800D9F8444023F0030603F0030744F48044E4
:101A980006F18046BF00C9F8444006F59C36D9F8DF
:101AA800444004F480440194019C0F24D6F808E0D3
:101AB800BC402EEA040E334CA0424ED004F580649C
:101AC800A0424CD004F58064A0424AD004F580645A
:101AD800A04248D004F58064A04246D004F5806452
:101AE800A04244D004F58064A04242D004F580644A
:101AF800A04240D004F58064A0423ED004F5806442
:101B0800A0420CBF09240A24BC40EF0244EA0E0498
:101B1800B4606FEA0C06946854BF34404CEA04047D
:101B2800AF029460D46854BF34404CEA0404AF0355
:101B3800D460546854BF34404CEA0404ED03546044
:101B4800146854BF34404CEA040414600133102B69
:101B58007FF440AF03B0BDE8F08F0024D4E7012440
:101B6800D2E70224D0E70324CEE70424CCE70524F7
:101B7800CAE70624C8E70724C6E70824C4E700BF65
:101B8800003C014000000240003802400AB1816177
:101B980070470904FBE7436901EA030221EA0301EC
:101BA80041EA024181617047D2010068D1F800C062
:101BB800843283182DE9F043C6680CF101075D688B
:101BC8004FF0000E4C68C6F30B4605F47045D1F88B
:101BD800189026445D60C568C5F30B453D4445EA49
:101BE80006455D60C668CD68C6F30A062E449D6842
:101BF80005F470459D608D68C7680135C7F30A070D
:101C08003D4445EA06450E699D601D6925F00705B6
:101C18001D611E619D6991F8327091F83180C3F899
:101C280018E091F8305045EA096545EA082545EA83
:101C380007459D615D6925F0FF055D614D695D6141
:101C4800DD6925F4E06525F00705DD61D1E9075771
:101C58003D43DD619D6A4D6AC3F828E09D62FEB18F
:101C6800013E062E1ED8104DAD5DDE6AA4EB0C04B5
:101C780006F0E0266C43DE6203348E6AC96A6E435E
:101C880044EA0644DC621C6B24F4FF6424F0070475
:101C98001C631963835843F001038350BDE8F08344
:101CA8000425E2E70125E0E7A19E0008704700004F
:101CB80038B50446002863D090F8A13003F0FF023D
:101CC8001BB980F8A020FFF7F1FF022384F8A130A8
:101CD80023689A6922F070429A619969D4E90120CF
:101CE8000243E06802432069024360690A432549C8
:101CF8009A619A680A409A609A6842EA0042A06922
:101D08000243E0699A60DA680A40DA60DA6842EA0F
:101D18000042206A0243606ADA601A690A401A615E
:101D28001A6942EA0042A06A02431A615A690A40E3
:101D3800E16A5A615A6942EA0142216B0A435A61CF
:101D4800DA6A94F8350002F07F4294F83610DA62C5
:101D5800DD6A94F834202A4342EA0022002042EA4D
:101D68000142DA625A6B42F006025A639A6942F0FB
:101D780001029A610123C4F8A40084F8A13038BD97
:101D88000120FCE700F800F0704738B5044660B35E
:101D98000368D3F8842022F00102C3F88420D3F822
:101DA800042122F00102C3F804215A6A42F0020217
:101DB8005A62FFF755F9054623689B6C5B0704D404
:101DC800FFF74EF9401B6428F6D92268204693692C
:101DD80023F001039361FFF7D7FF0020C4F8A400A4
:101DE80084F8A00084F8A10038BD0120FCE7704702
:101DF80070477047036870B59E6B04465D6B720749
:101E080014D5690712D55A6B22F004025A630422CA
:101E1800DA63D0F8A43043F00103C0F8A4300023FB
:101E280080F8A12080F8A030FFF7E1FFB20716D5AF
:101E3800AB0714D5236820465A6B22F002025A6376
:101E48000222DA63D4F8A4301343C4F8A43004237C
:101E580084F8A130002384F8A030FFF7C8FFF0070A
:101E680010D5E9070ED5236820465A6B22F00102E7
:101E78005A630122DA63002384F8A12084F8A03091
:101E8800FFF7B6FF320711D52B070FD52368204679
:101E98005A6B22F008025A630822DA63012384F895
:101EA800A130002384F8A030FFF7A3FF70BD2DE90F
:101EB800F04190F8A03006460F469446012B4FF0AB
:101EC80002001FD034244FF001080D4686F8A10007
:101ED80004FB026486F8A08038340FCD0FC40FCD00
:101EE8000FC40FCD0FC42B683046624639462360B5
:101EF800FFF75AFE33680020C3F8248086F8A180D3
:101F080086F8A000BDE8F08110B590F8A030012B4C
:101F18004FF0020313D0046880F8A13004EBC2121A
:101F2800D2F8903003F07F43C2F890300123C2F812
:101F38009010636280F8A130002380F8A030184622
:101F480010BDF0B590F8A040012C4FF002042ED03F
:101F58004FEAC31C80F8A140342400250CF1840CFE
:101F68004FF0885E04FB0303954207D1012380F8F4
:101F7800A130002380F8A0301846F0BD9F6C51F8BE
:101F88002560062F06F47F040CD10EFB05F72743C6
:101F9800F4B2274306F47F443C430668013566449F
:101FA8003464E1E744EA0564B6B23443F5E7204611
:101FB800E3E790F8A030012B4FF002030FD0C901DE
:101FC80080F8A130036884315A5842F002025A500E
:101FD80001225A62002380F8A12080F8A030184618
:101FE800704790F8A030012B4FF002030FD0C901C1
:101FF80080F8A130036884315A5822F002025A50FE
:1020080001225A62002380F8A12080F8A0301846E7
:10201800704790F8A030012B4FF002030FD0C90190
:1020280080F8A130036884315A5842F010025A509F
:1020380001225A62002380F8A12080F8A0301846B7
:102048007047F8B590F8A05004469C46012D4FF013
:1020580002051DD080F8A150342501275D4380F882
:10206800A0704619336EB1631944C6E90F12716E38
:1020780011446246716405F138010144FFF794FD8B
:10208800236800205F6284F8A17084F8A000F8BD7E
:102098002846FCE770B590F8A0300446012B4FF0B5
:1020A800020315D080F8A13034230126534380F869
:1020B800A060C518E96403F138010144FFF774FD15
:1020C800236800205E6284F8A16084F8A00070BDD7
:1020D8001846FCE770B590F8A0300446012B4FF085
:1020E800020315D080F8A13034230126534380F829
:1020F800A060C518E96503F138010144FFF754FDF4
:10210800236800205E6284F8A16084F8A00070BD96
:102118001846FCE730B590F8A030012B4FF00203C9
:1021280029D080F8A130342303FB02039B6C23B32E
:10213800013B062B23D8134CE45CD20103686143AE
:1021480084321344DA6A22F0FF5222F4F812DA6277
:102158000D4A556A45F001055562DD6A45EA0141B7
:10216800D962536A43F001035362012380F8A13016
:10217800002380F8A030184630BD0424DDE7012490
:10218800DBE700BFA19E000800680140194B37B586
:102198001A6C194C42F080521A641B6C03F080537D
:1021A8000193019B236843F480332360FEF758FFB3
:1021B80005466368DA030CD523680F4D43F40033F2
:1021C8002360FEF74DFF04466B689B030AD5002089
:1021D80006E0FEF745FF401BB0F57A7FE9D90320FA
:1021E80003B030BDFEF73CFF001BB0F57A7FEBD99A
:1021F800F5E700BF00380240007000402DE9F341C8
:10220800044640B30368DB0710D423689F0761D4F2
:102218002368190700F1A68023685A0700F1C780D0
:10222800A269002A40F0308100202CE0944B9A6883
:1022380002F00C02042A07D09A6802F00C02082A5D
:102248000BD15B685E0208D58D4B1B689D03DCD5FE
:102258006368002BD9D1012015E06368884DB3F578
:10226800803F13D12B6843F480332B60FEF7F8FED0
:10227800834E054633689803C7D4FEF7F1FE401B2A
:102288006428F7D9032002B0BDE8F0819BB92B6818
:1022980023F480332B602B6823F480232B60FEF714
:1022A800DFFE06462B689903AFD5FEF7D9FE801BE3
:1022B8006428F7D9E6E7B3F5A02F2B6803D143F4D8
:1022C80080232B60CEE723F480332B602B6823F424
:1022D8008023CAE76A4B9A6812F00C0F07D09A68F5
:1022E80002F00C02082A11D15B685A020ED4644A23
:1022F80013689B0702D5E368012BACD113682169E9
:1023080023F0F80343EAC103136081E7E3685C4DF7
:10231800BBB12B6843F001032B60FEF7A1FE064614
:102328002B689F0707D52B68226923F0F80343EA37
:10233800C2032B606CE7FEF793FE801B0228EFD9DF
:10234800A0E72B6823F001032B60FEF789FE064601
:102358002B6898077FF55CAFFEF782FE801B02288A
:10236800F6D98FE76369464D83B16B6F43F001037C
:102378006B67FEF775FE06466B6F9B073FF54CAF24
:10238800FEF76EFE801B0228F6D97BE76B6F23F001
:1023980001036B67FEF764FE06466B6F9F077FF5C8
:1023A8003BAFFEF75DFE801B0228F6D96AE7344B87
:1023B8001A6CD00027D41A6C012742F080521A6494
:1023C8001B6C03F080530193019B2E4D2B68D9059C
:1023D8001BD5A3682A4D012B27D12B6F43F001038E
:1023E8002B6741F28838FEF73BFE254E0546336FD2
:1023F8009B073FD5002F3FF413AF214A136C23F0FE
:10240800805313640CE70027DFE72B6843F48073DD
:102418002B60FEF725FE06462B68DA05D9D4FEF7B1
:102428001FFE801B6428F7D92CE7ABB92B6F41F24C
:10243800883823F001032B672B6F23F004032B67E5
:10244800FEF70EFE06462B6F9807D3D5FEF708FE5B
:10245800801B4045F7D915E7052B2B6F03D143F0B7
:1024680004032B67B9E723F001032B672B6F23F0D5
:102478000403B5E7FEF7F4FD401B4045B7D901E773
:1024880000380240007000403C4DAB6803F00C037C
:10249800082B42D02B68022A23F080732B602FD19F
:1024A800FEF7DEFD06462B68990123D4D4E90732EE
:1024B8001343626A43EA8213E26A43EA0263226BC5
:1024C80043EA0273A26A5208013A43EA02436B6084
:1024D8002B6843F080732B60FEF7C2FD274D04463E
:1024E8002B689A013FF5A0AEFEF7BAFD001B022843
:1024F800F6D9C7E6FEF7B4FD801B0228D3D9C1E69A
:10250800FEF7AEFD04462B689B017FF58DAEFEF706
:10251800A7FD001B0228F6D9B4E6012A6B683FF430
:102528009AAE03F48002E1698A427FF494AE03F024
:102538003F02216A8A427FF48EAE47F6C072616A12
:102548001A40B2EB811F7FF486AEA26A03F44031D1
:102558005208013AB1EB024F7FF47DAE03F070628E
:10256800E16AB2EB016F7FF476AE03F0E043226BD1
:10257800B3EB027F3FF458AE6DE600BF003802406F
:10258800134908B58B6803F00C03042B1BD0082BE8
:102598001BD14A684B68496802F03F0213F4800374
:1025A800C1F388111ABF0B4800230B48A1FB000197
:1025B800FDF73EFE064B5B68C3F3014301335B0046
:1025C800B0FBF3F008BD0348FCE70348FAE700BF97
:1025D8000038024040787D010024F4002DE9F041E4
:1025E8000D46044610B90120BDE8F081454A13683C
:1025F80003F00F038B4228D321688F0730D4C80714
:1026080043D4404A136803F00F03AB4266D82268EC
:1026180051076FD4130707D53B4A2169936823F400
:10262800604343EAC1039360FFF7AAFF364B374A7A
:102638009B68C3F30313D35CD840354B1860354B04
:102648001868FEF7C9FC0020CEE7136823F00F03D3
:102658000B431360136803F00F038B42C3D1CBE71E
:1026680011F0040F284B03D09A6842F4E0529A60A4
:102678000E0703D59A6842F460429A609A68A06887
:1026880022F0F00202439A60B9E761681E4B012903
:102698001A681BD112F4003FA5D09A6841F2883815
:1026A800194F22F003020A439A60FEF7D9FC064646
:1026B800BB68626803F00C03B3EB820FA1D0FEF78E
:1026C800CFFC801B4045F3D903208DE7022902D1B6
:1026D80012F0007FE0E712F0020FDDE7136823F045
:1026E8000F032B431360136803F00F03AB427FF40F
:1026F8007AAF8CE70449E0688B6823F4E05303431E
:102708008B6087E7003C024000380240819E000849
:10271800180000202000002003682DE9F74313F07B
:10272800010604460BD0B14A916821F4000191607A
:10273800466B91683143B6FA86F67609916013F4D0
:10274800002512D0A949E56BD1F88C20B5F5801F7A
:1027580022F4401208BF012642EA050216BFB5FA64
:1027680085F500256D09C1F88C20D90210D59F4840
:10277800216CD0F88C20B1F5800F22F4400242EA97
:102788000102C0F88C2000F0AA81002908BF0125A9
:1027980013F0807F18BF01269A0632D5934B944FC9
:1027A8001A6C42F080521A641B6C03F08053019338
:1027B800019B3B6843F480733B60FEF751FC804605
:1027C8003B68DB0540F18D81884F226B3B6F13F42A
:1027D800407340F09181236B03F44072B2F5407F5F
:1027E800824A40F0AE81916823F0704021F4F811DC
:1027F80020F4407001439160C3F30B03116F0B4346
:1028080013672368DA060CD5784AD2F88C1021F0C1
:102818008071C2F88C10D2F88C10A06B0143C2F8FA
:102828008C105F0408D57149606ED1F8902022F4AD
:1028380040320243C1F89020180408D56B49A06EB5
:10284800D1F8902022F440220243C1F89020D90305
:1028580008D56649E06ED1F8902022F44012024370
:10286800C1F890209A0308D56049206FD1F89020CC
:1028780022F440020243C1F890205F0608D55B4964
:10288800606CD1F8902022F003020243C1F8902036
:10289800180608D55549A06CD1F8902022F00C02F2
:1028A8000243C1F89020D90508D55049E06CD1F809
:1028B800902022F030020243C1F890209A0508D5F2
:1028C8004A49206DD1F8902022F0C0020243C1F895
:1028D80090205F0508D54549606DD1F8902022F415
:1028E80040720243C1F89020180508D53F49A06DF1
:1028F800D1F8902022F440620243C1F89020D90414
:1029080008D53A49E06DD1F8902022F440520243AC
:10291800C1F890209A0408D53449206ED1F8902047
:1029280022F440420243C1F890205F0208D52F49A3
:10293800A06FD1F8902022F080620243C1F8902065
:1029480098020CD52948E16FD0F89020B1F1006FBA
:1029580022F0006208BF01250A43C0F8902013F056
:10296800080F18BF0125590308D52049606FD1F811
:10297800902022F040720243C1F890201A0209D533
:102988001A49D4F88000D1F8902022F080520243EE
:10299800C1F890205F0109D51449D4F88400D1F812
:1029A800902022F000520243C1F89020180109D566
:1029B8000E49D4F88800D1F88C2022F00072024326
:1029C800C1F88C20D90009D50849D4F88C00D1F871
:1029D8008C2022F080620243C1F88C20012E00F086
:1029E800B4809A0100F1B18004E000BF00380240D1
:1029F80000700040012D70D19D4D2B6823F080534D
:102A08002B60FEF72DFB06462B689F0000F1218105
:102A180021680E0301D5E36B1BB1CD021DD5236CD4
:102A2800DBB9934AD2F88830D2F8880003F44033EF
:102A380000F0E0400343606943EA8013A06943EA79
:102A48000063C2F88830D2F88C30A06A23F4F853B7
:102A5800013843EA0023C2F88C30880215D5E36FA9
:102A6800B3F1006F11D1824AD2F88830D2F88800C9
:102A780003F0706300F0E0400343606943EA8013A9
:102A8800206A43EA0043C2F888300A0719D5784A11
:102A9800D2F88810D2F8883001F0706103F440331E
:102AA8000B43616943EA8113E16943EA0173C2F8A0
:102AB8008830D2F88C30E16A23F440330B43C2F8F3
:102AC8008C306B4C236843F080532360FEF7C8FAC0
:102AD800054623689B0040F1C380002009E00126D9
:102AE80056E6FEF7BDFAA0EB080064287FF668AE4C
:102AF800032003B0BDE8F08302F440729A423FF429
:102B08006AAE3B6F3A6F23F4407342F480323A67FF
:102B18003A6F22F480323A673B673B6FD8077FF5FC
:102B28005AAEFEF79DFA41F2883980463B6F990705
:102B38003FF551AEFEF794FAA0EB08004845F5D9E9
:102B4800D6E7916821F4F81155E6494E336823F029
:102B580080633360FEF784FA074633681B0172D43A
:102B68002268D70712D5636B83B9D6F88430D6F8B4
:102B7800841003F4403301F070610B43616843EA49
:102B88008113A16843EA0173C6F88430160303D59C
:102B9800E36BB3F5801F05D0D0021ED5236CB3F5C7
:102BA800800F1AD13249D1F88430D1F8840003F467
:102BB800403300F0E0400343606843EA8013E06874
:102BC80043EA0063C1F88430D1F88C00636A20F0CE
:102BD8001F00013B0343C1F88C30D10111D52449B2
:102BE800D1F88430D1F8840003F0706300F0E0403D
:102BF8000343606843EA8013206943EA0043C1F84D
:102C0800843092010DD5236962681B0443EA82135C
:102C1800E26843EA0263A26843EA0273144AC2F80C
:102C28008430134E336843F080633360FEF718FA3C
:102C3800074633681B013FF5DDAEFEF711FAC01BEE
:102C48006428F6D954E7FEF70BFAC01B642884D928
:102C58004EE7FEF705FA801B64287FF6D5AE47E7F6
:102C6800FEF7FEF9401B64287FF633AF40E700BF4C
:102C780000380240704738B50D460446C8B190F890
:102C88002C3003F0FF021BB980F82D20FFF7F2FF6C
:102C98000223211D206884F82C3000F0CEF96268E8
:102CA8002946206800F001FA0123002084F82C301E
:102CB80038BD0120FCE770B590F82C3005460E466B
:102CC800022BD8B210D000F0FB04012C10D1022343
:102CD800286885F82C3000F01EFA3368022B04D1DE
:102CE800052385F82C30002070BD85F82C40FAE7C4
:102CF8000120F9E738B590F82C300446022BD8B2F9
:102D08000DD094F82C30012BDDB209D102232068B4
:102D180084F82C3000F011FA002084F82C5038BDCB
:102D28000120FCE790F83D30012B33D1022380F8D5
:102D38003D300368DA6842F00102DA60164A9342CD
:102D48001AD0B3F1804F17D0A2F57C42934213D02A
:102D580002F5806293420FD002F5806293420BD055
:102D680002F57842934207D002F57052934203D09D
:102D7800A2F59432934207D19968084A0A40062A74
:102D880006D0B2F5803F03D01A6842F001021A60FB
:102D98000020704701207047000001400700010033
:102DA800704770477047704703681A69910710B5F4
:102DB80004460FD5DA6892070CD56FF002021A6143
:102DC800012202779B69990700F08580FFF7E9FFE8
:102DD8000023237723681A69520710D5DA68500749
:102DE8000DD56FF0040220461A61022222779B69F2
:102DF80013F4407F75D0FFF7D4FF002323772368AF
:102E08001A6911070FD5DA6812070CD56FF0080296
:102E180020461A6104222277DB699B0767D0FFF7F7
:102E2800C0FF0023237723681A69D00610D5DA6813
:102E3800D1060DD56FF0100220461A6108222277BC
:102E4800DB6913F4407F58D0FFF7ABFF00232377EB
:102E580023681A69D20708D5DA68D00705D56FF054
:102E6800010220461A61FDF7B0FC23681A691106B1
:102E780008D5DA68120605D56FF0800220461A6177
:102E880000F0D9F823681A69D00508D5DA68110660
:102E980005D56FF4807220461A6100F0CDF82368DA
:102EA8001A69520608D5DA68500605D56FF040024F
:102EB80020461A61FFF777FF23681A69910622D521
:102EC800DA6892061FD56FF0200220461A61BDE825
:102ED800104000F0AFB8FFF763FF2046FFF762FF2E
:102EE80076E7FFF75DFF2046FFF75CFF85E7FFF712
:102EF80057FF2046FFF756FF93E7FFF751FF20469D
:102F0800FFF750FFA2E710BD304A0368904212D085
:102F1800B0F1804F0FD0A2F57C4290420BD002F561
:102F28008062904207D002F58062904203D002F599
:102F38007842904219D14A6823F070031343234A18
:102F4800904229D0B0F1804F26D0A2F57C42904221
:102F580022D002F5806290421ED002F58062904233
:102F68001AD002F57842904216D0194A904213D0EE
:102F780002F5806290420FD002F5806290420BD039
:102F8800A2F59832904207D002F58062904203D0B1
:102F980002F58062904203D123F44073CA68134358
:102FA8004A6923F08003134303608B68C3620B688C
:102FB8008362064B984203D003F58063984201D19F
:102FC8000B69036301234361704700BF00000140A0
:102FD8000040014010B5044650B390F83D3003F06E
:102FE800FF021BB980F83C20FDF7CEFB02232068C6
:102FF800211D84F83D30FFF787FF0123002084F866
:10300800483084F83E3084F83F3084F8403084F803
:10301800413084F8423084F8433084F8443084F8EE
:10302800453084F8463084F8473084F83D3010BD88
:103038000120FCE77047704770472DE9F041D1E95E
:10304800012CD1E90738D1F824E043EA0803D1E993
:103058000376D1E90554096891B943EA0E0301687A
:10306800134321F4FF4143EA0C0321F07F013B4362
:1030780033432B4323430B4303600020BDE8F08117
:10308800016843EA0E0321F4F8410B43036042EA66
:103098000C0341683B4321F4FF42334322F07F0293
:1030A8002B43234313434360E7E7CB6803F1FF3C1B
:1030B8004B69F0B5013B0F684C688E681B050D69BC
:1030C800013C8969013E013D013F01392401360275
:1030D8002D04090643EA0C335AB93B43826823435B
:1030E80002F0704233432B430B43134383600020A9
:1030F800F0BD826822F4700222F470421A4344EA56
:1031080006033B438260C2682B4302F070420B43C4
:103118001343C360EBE7026910B5D1E90034920D9F
:103128002343CC68920543EA442313438A68013A4F
:1031380043EA42130361002010BD436923F47F531F
:1031480023F03E0343EA410141610020704700003B
:103158004FF48021014801F015BB00BF4C0200204C
:10316800044B03EB800253F82030516890684B43BE
:10317800584370474C0204200548064B984205D036
:10318800054B98420CBF0120022070470020704771
:10319800C89F0008B09F0008E09F0008024B1A7BF8
:1031A800002AFCD1704700BF4C0204202DE9F843E7
:1031B800DDF8288017461E46DDE90859FFF7EEFFBF
:1031C800104B01221A73D0B9FFF7D6FFADB20E4CDF
:1031D8004FF4007345EA06452360E160E763C4F8ED
:1031E8001090C4F84080E0616564236843F400737C
:1031F80043F001032360BDE8F843FFF7CFBF002089
:10320800E4E700BF4C02042000B00240F0B585B0EE
:10321800044615460E46FFF7A3FF0B4B002253F852
:1032280024100A4B03EB8407CDE901227A68009247
:1032380000FB051253F8243000FB06112046FFF767
:10324800B5FF3D6105B0F0BDA89E00084C02042002
:103258002DE9F047054690460E461C46134FFFF7EA
:103268007FFF134B53F8251057F8253007EB8507D8
:10327800D7F808C008FB03663A69089F504307FB64
:103288000344DDE9099A0CFB0414A3EB09020CFBC7
:1032980006114B46CDF820A00144CDE90922221899
:1032A8002846BDE8F047FFF781BF00BF4C02042065
:1032B800A89E00082DE9F3470546154F0E4692468D
:1032C8000193FFF74DFF57F8253007EB85070C9C56
:1032D8000AFB03620F4EB968002C56F82560B8BF88
:1032E800033401FB02623E69019906FB002228466D
:1032F800DDE90A89A3EB0803C8EBA4040C93434651
:10330800CDE90A9402B0BDE8F047FFF74FBF00BF10
:103318004C020420A89E00082DE9F3470446144EE9
:103328000F4692460193FFF71BFF56F8243006EB31
:1033380084060C9D0AFB03720E4FB16805EBD57528
:1033480057F82470366901FB02720199DDE90A8990
:1033580006FB00222046A3EB0803C8EB65050C9387
:103368004346CDE90A9502B0BDE8F047FFF71EBF16
:103378004C020420A89E00082DE9F0411D46904605
:10338800DDE90634ADB203EBD37304EBD474C2EBBE
:103398006306C2EB64070D4CFFF700FF0C4B0122DC
:1033A80045EA08451A734FF4007323600223E1606D
:1033B800E06327612664E3616564236843F400736E
:1033C80013432360BDE8F041FFF7E8BE00B00240B8
:1033D8004C02042070B516461D46FFF7DFFE012299
:1033E8000D4B2D040D4C1A7315430D4B2360002310
:1033F800E0606161E6632361A3612364E361636262
:1034080063636564236843F4007313432360BDE872
:103418007040FFF7C3BE00BF4C02042000B002405A
:10342800000202002DE9F74F0E9D92469DF840607C
:103438004FF0000B2B440C9F4FEA0668C6F1FF06BD
:103448009A000D9B4FEA05492F441D4448F48038E3
:10345800360649F00109BF00154CAD000F9B9B458E
:1034680002D103B0BDE8F08F0192FFF797FE4FF04D
:10347800010C104B0BF1010B83F80CC00E4B2360B1
:103488000023E06061613944C4F83CA0AA44C4F850
:103498001C8066626363C4F84490236843F4007335
:1034A80043EA0C032360FFF779FE019A1044D5E73D
:1034B80000B002404C02042000020200F8B5069D4C
:1034C80017461E46FFF76AFE01220C4B0C4C2D04D2
:1034D8001A734FF48133154323600023E060E163DE
:1034E80023612364E76166636564236843F40073BA
:1034F80013432360BDE8F840FFF750BE4C02042098
:1035080000B0024007B5002300920422FFF7D6FF5F
:1035180003B05DF804FB07B5002300920222FFF711
:10352800CDFF03B05DF804FB07B50023009203222A
:10353800FFF7C4FF03B05DF804FB002307B5009252
:103548001A46FFF7BBFF03B05DF804FBFFF7F5BFB2
:10355800FFF7F3BFFFF7F1BF07B50423009200227E
:10356800FFF7ACFF03B05DF804FB07B50223009238
:103578000022FFF7A3FF03B05DF804FB07B50323A0
:1035880000920022FFF79AFF03B05DF804FB0000E9
:103598002DE9F8430A9F16461D46124CDDE90898A6
:1035A800FFF7FCFD104B0122ADB21A7345EA064540
:1035B8000E4B23600023E1606061E063C4F8109063
:1035C800C4F81880C4F84080E36167626763656483
:1035D800236843F4007313432360BDE8F843FFF7FF
:1035E800DDBD00BF00B002404C0204200002020012
:1035F80030B5002585B00295089D099C002DB8BFFF
:103608000335002CB8BF0334C2EBA505C2EBA404F4
:1036180001950094FFF7BCFF05B030BD38B5CB88E5
:1036280004460D461046082B07D1252102F0F2FD6D
:1036380018B1EB680BB11B7923B12046BDE83840BF
:1036480002F038BD2168A068FFF7A8FD01390A4BD0
:10365800012209021A7389B2084BD862D9611A6823
:10366800074842F480521A60DA6942F02002DA61AF
:10367800FFF794FD38BD00BF4C02042000B00240A3
:10368800B40304202DE9F04F0C1E85B0174683467D
:103698009A460E9A7BDBDFF80891A11859F820505A
:1036A800A94274DA002F72DB0F9B09EB8B01F81823
:1036B800496888426BDABBF1000F65D1FFF75CFD02
:1036C8000428804663D801320F9B22F001025A4336
:1036D800501E0392B0F5164F59D25846FFF740FDD9
:1036E800029009EB8B0C2B48DCF8103050F82B605B
:1036F8000193DCF808B0FFF751FD039A4FF0010C75
:103708000AEB020E244A89F80CC01AF801CB84444B
:10371800F2459CF808C002F801CBF6D1109B07FBD4
:1037280005444FEA43090BFB046602F013FD02F05F
:103738009BFB1A4B4FF40032A5EB09051A60164A99
:1037480018620020DA600A221861DA61DDE90F21C7
:1037580042EA41425A64DDE9012101FB02665E61E9
:103768009D61C3F824805A69DA639A691A645A6AAF
:103778005A631A6842F4007242F001021A60FFF7B5
:103788000DFD05B0BDE8F08F4FF000089BE7012064
:10379800F7E700BFA89E0008B403042000B0024069
:1037A8004C0204202DE9F14F0C9C8A4693461E4694
:1037B8000546DDE90A8740BBFFF7DEFC814628465F
:1037C800FFF7CEFC124B1349002C53F8252003EBCE
:1037D800850351F82550B8BF033499680BFB02AA3A
:1037E8001B69A2EB080201FB0A55C8EBA4040B9263
:1037F800314603FB005042463B46CDF830900A94D0
:1038080001B0BDE8F04FFFF7C3BE4FF00009D6E79F
:103818004C020420A89E00082DE9F84FDDF830A0DE
:103828000D46934699460446DDE90A87002838D1B3
:10383800FFF7A2FC0646204647EA0847FFF790FC38
:10384800194B1A4903EB840E53F824C051F824107D
:103858000BFB0C55DEF80820154C02FB0511DEF8B1
:103868001020AAEB080502FB0011ACEB0800FFF7DB
:1038780095FC01220C4B1A734FF481332360052306
:10388800C4F80C90E16325612064E36166636764B2
:10389800236843F4007313432360BDE8F84FFFF730
:1038A8007DBC0026C7E700BF4C020420A89E000884
:1038B80000B002402DE9F04706460F4690461D46E7
:1038C800DDE9084901F0C0F9012811D100221921C8
:1038D800304602F0B8FD2A4641463846234602F0F3
:1038E8002BF83046204A1921BDE8F04702F0ABBD5D
:1038F800DFF884A03046FFF733FC1C495AF826202D
:103908000AEB860CED1B51F8261008FB0277DCF851
:1039180008300135A4EB080403FB0711DCF810306C
:10392800571B013403FB0011FFF738FC01238AF809
:103938000C30BEB9FFF720FCA4B20D4B0D4A44EA87
:1039480005441A60C3F83890D9631F6458635C64EF
:103958001A6842F4007242F00102BDE8F0471A60AA
:10396800FFF71CBC0020E7E7BD380008A89E000848
:1039780000B00240000203004C0204200128034664
:1039880007B50AD84B781522084800930B78002110
:10399800FDF7A6FF03B05DF804FB01910A5C002166
:1039A800024800923922FDF7ACFFF3E760020420D9
:1039B8001FB52A4B0F2158205A6C42F080625A6476
:1039C8005A6C02F080620192019A5A6A42F080624F
:1039D8005A625A6A22F080625A621A6B42F40002F2
:1039E8001A631A6B02F400020292029A1A6942F4EC
:1039F80000021A611A6922F400021A615A6C42F034
:103A080000625A645A6C02F000620392039A5A6A7E
:103A180042F000625A625A6A22F000625A62002238
:103A2800FDF748FB5820FDF777FB00220F216220A5
:103A3800FDF740FB6220FDF76FFB094A0F215A2072
:103A4800136843F4007313600022FDF733FB5A2018
:103A580005B05DF804EBFDF75FBB00BF003802401E
:103A680000B00240044B02229A6010229A600022A1
:103A7800024B1A73704700BF00B002404C0204208A
:103A8800074B07B503EB80002A2339220021009356
:103A9800042301900348FDF734FF03B05DF804FBED
:103AA800240000206002042038B50B4A04460B4D60
:103AB800136AA96823F470630029136205DB0020E8
:103AC80001F006FD4FF0FF33AB60012320462B6168
:103AD800BDE83840FDF7F4BE002402402400002071
:103AE8003349F0B50646334D086985B02A6B002482
:103AF8000128336802F1840731DC00944FF4487CD4
:103B0800D3F8040420F00800C3F80404D3F804042C
:103B180000F00800009000984869C5F8D8000D69C1
:103B28000CFB0500B862506A40F001005062019435
:103B3800D3F8042442F00802C3F80424D3F8043468
:103B480003F008030193019B0869431C0B61FFF70D
:103B580097FF304605B0BDE8F040FDF7B1BE0294CE
:103B68002046D3F8041421F00801C3F80414D3F84C
:103B7800041401F0080102910299D5F8D810B9622D
:103B8800516A41F0010151620394D3F8042442F0D0
:103B98000802C3F80424D3F8043403F00803039399
:103BA800039BFFF76DFFC5F8DC4005B0F0BD00BF13
:103BB800240000204C02042037B502230C4A1525A6
:103BC800002182F8E03002F1140482F8E150E0327A
:103BD80020460192442200923922FDF792FE0021EC
:103BE80035232A4620460091FDF77AFE03B030BD02
:103BF8004C020420013970B5044686B016460D29DA
:103C08000FD8DFE811F024000E0013006C007300D9
:103C18007A00D700D0008000EF000E00F500FF000A
:103C280026004FF0FF35284606B070BD7D48536822
:103C380050F82420534300EB8402303095687A4AC8
:103C480052F82410224605FB0311FEF743FA00251B
:103C5800E9E7764A136A43F4506313620123714A11
:103C6800C2F8DC30D2F8DC50002DFBD102EB840125
:103C7800306852F824304E688968734300954B4386
:103C8800694951F8241000FB0311694B03EB8403C5
:103C9800596198605369126BD3F8040420F0080046
:103CA800C3F80404D3F8040400F008000090009856
:103CB80002F1840000EBC4108162516A41F00101F5
:103CC80051620195D3F8042442F00802C3F8042491
:103CD800D3F8043403F008030193019BA3E70346D8
:103CE800127931685348FEF72CF9B0E74D4B1A6B3F
:103CF800936943F001039361A9E74A4B1A6B9369EF
:103D080023F00103F7E7474AE401106B536932686F
:103D180000F18401012A4FF0000225D10292D3F864
:103D2800045425F00805C3F80454D3F8045405F0E6
:103D380008050295029D0D5945F001050D510392A4
:103D4800D3F8042442F00802C3F80424D3F8043456
:103D580003F008030393039B436A43F001034362A0
:103D68003548FDF7ADFD72E70492D3F8045425F009
:103D78000805C3F80454D3F8045405F0080504955D
:103D8800049D0D5925F001050D510592D3F8042421
:103D980042F00802C3F80424D3F8043403F00803FB
:103DA8000593059BD8E70346D2E900122148FEF7A0
:103DB80048F94CE705AA04A901F0C2FB204602F025
:103DC80003FA184BD6E9001248B143F824200A46F2
:103DD80003EB84035A602346DDE90412E6E743F85F
:103DE8002410F5E7024631681248FEF753F92EE72A
:103DF800156801460F4815B1FEF7DBF827E7FEF70F
:103E0800F0F810E713681A04C3F3074103F47F437B
:103E180002F47F021143024606481943FEF774F87C
:103E280015E700BF4C020420A89E000800240240A9
:103E3800240000207C020420600204202DE9F04FB9
:103E48000221AFB0002001F057FB002328491A4691
:103E5800284801F00FFA002002F0B6F900283BD0FC
:103E68004FF448724FF4F071002002F01CFB4FF43D
:103E780048724FF4F071002002F043FB4FF04041CC
:103E8800002002F028FB002002F092F91A4BC01023
:103E98001A4A21219860FFF76FF90646002002F0C0
:103EA800D2FA042E04D8164A1921002002F0CBFABF
:103EB800144A2321002002F0C6FA042E2BD8124AF5
:103EC8002521002002F0BFFA022E21D10F4A242119
:103ED800002002F0B8FA1EE04FF4F0724FF4487177
:103EE80002F0E1FA4FF4F0724FF44871C3E700BFF3
:103EF800C89F00089CA300084C0204201532000843
:103F0800BD3800085932000821380008213300085C
:103F1800002E00F09881CE490127CE484FF4004486
:103F280000F04EFACC49CD48002500F0FBFACC4908
:103F3800CC484FF0040B00F049FACB49CB484FF47A
:103F4800C87A00F00FFBCA49CA484FF4805900F0FC
:103F580057FAC94801F0B4FBC84800F07DFFC848CB
:103F680001F0B6FBC74800F019FADFF84883C648E5
:103F780003F010FFC549C64801F0B2FBD8F830304D
:103F88000AA9C44843F40073C8F83030D8F8303070
:103F98000C9703F400730493049B0323CDE90A47A9
:103FA8000D93FDF711FD21460022BA48FDF7EEFDFD
:103FB8001420FDF75BF83A462146B648FDF7E6FDC2
:103FC8000A20FDF753F8B44CFFF7F2FC08230AA8BF
:103FD80015950A9340F2A1130F9307231193FEF747
:103FE8009BFBAE4B204640F8143FFDF796FA05239D
:103FF800642004F1E401C4F8EC502762C4F81CB052
:10400800C4E9390304F11400FDF7D2F9102304F1CF
:10401800F00104F11400C4F8F050C4F80C51C4F8CD
:10402800F450C4F80051C4F81871C4E93EA3C4E9B7
:104038004155C4E94455FDF72DFB4FF4807C4FF4FE
:1040480000734FF4806E4FF480424FF4003104F156
:104058001400C4E947C34FF40063C4E949E34FF4CB
:104068000053C4E94B934FF480334FF00209C4E97D
:104078004D234FF48023C4E94F134FF4002304F574
:104088008E71C4F84431FDF777FB232304F5A8713A
:1040980004F11400C4F86051C4E95433C4E9563338
:1040A8000A23C4F86431FDF7ACFB04F13000FDF7D6
:1040B8006CFE7B4B4FF4C97040F2931CA4F864501B
:1040C800A76484F86650C4E90C354FF4F173C4E969
:1040D800150340F2E31304F13000C4E917C3C4E93F
:1040E8000E55C4E91057C4E91399FDF7E1FD04F131
:1040F8001400FDF7C2FB15222823294604F11400F9
:104108000095FDF7EDFB39464846FCF77DFB04F5C5
:104118008E7104F11400C4F84451C4E94755C4E948
:104128004955C4E94B55C4E94D55C4E94F55FDF708
:1041380023FB594604F11400FDF752FBD8F8303040
:104148004FF0030E05A943F400735248C8F8303005
:10415800D8F830304FF4C068079503F40073039320
:10416800039B0D23CDE905B9CDE908E3FDF72CFC48
:10417800636905950AA9D3F8042404F1300022F0F4
:104188000802C3F80424FF22D3F804340C9503F082
:104198000803ADF858508DF85A500593059B4FF415
:1041A800F073CDE90F2507221593CDE911824FF061
:1041B8004042CDE9132A2A46CDE90D36CDE90A5AFF
:1041C800FDF775FE284601F0F3FF082804DC2946B0
:1041D80004F13000FDF71DFF00224FF4487131480B
:1041E800FDF798FF636900212F4C30480A91D3F8F6
:1041F800042442F00802C3F804243922D3F8043412
:1042080001941C3403F008030A930A9B2A230093A1
:104218000423FDF776FB2B23392200210093042386
:1042280001942248FDF76DFB1420FCF71FFFFFF7F0
:10423800C3FC00212923152200911C48FDF750FBDF
:104248002FB0BDE8F08F1A4A2821304641E600BF5A
:1042580031350008853500081F350008733500081A
:104268000D350008613500085D350008593500082E
:104278005535000843350008DD33000825360008A9
:104288002D3400088D36000881330008AD3700084A
:10429800F9350008002402404C020420006C01405B
:1042A800006801407C0204202400002060020420F1
:1042B800BD320008003802400148FDF779B900BF57
:1042C8006002042070472DE9F74F804693461F4649
:1042D80000250091BD422ADA009B44465E46DDF87F
:1042E80034A005EB0309012EC8EB040011DD1AF810
:1042F800013B20464946023E1A09019301F028FE77
:10430800019B601C494603F00F02023401F020FEB5
:10431800E9E736B19AF8002049464044120901F00D
:1043280017FE0D9B01350C9A13440D93D2E703B089
:10433800BDE8F08F2DE9FF479946154B05460E4617
:104348001B689046DDF830A0587C124B0D9F53F83F
:104358002030DB681B685BB14B4642463146284635
:104368000D97CDF830A004B0BDE8F047FFF7ABBF1C
:10437800094B1C68002CEFD00A463B4629468DE8BD
:104388000007A0470028E7D104B0BDE8F08700BFC8
:1043980080000020F49C0420B8990420044B20B12C
:1043A800044A1A60044B18607047044A1A60704740
:1043B800440000203D430008B8990420CF4200087B
:1043C800014B83E803007047049A0420014B83E8FB
:1043D800030070470C9A042070474FF0FF30704775
:1043E80010B550F8044B013A0C601944F9D110BDCE
:1043F80010B50468013A184441F8044BF9D110BDCE
:1044080070470000C0F34513074AD15CC0F3C423CA
:10441800064A00F01F00D35C105C1B0403EB012369
:10442800184440F07F40704720A3000860A30008AC
:10443800C0F30723064AD15CC0F30743054AC0B25C
:10444800D35C105CDB0203EB41131844704700BFD8
:1044580020A0000820A100084FF6FF707047000058
:10446800F0B5DFF850E006460D461446DEF800E0E9
:104478001F46BEF1000F03D0F446BDE8F040604788
:10448800DFF834E00A4956F8042B013CC2F307234D
:104498001EF80300C2F30743D2B2CB5C8A5C4FEA32
:1044A800C32303EB401313442B803D44EBD1F0BDF1
:1044B80020A10008149A042020A00008F0B5164E88
:1044C80086460F46144676681D461EB1B446BDE8BA
:1044D800F040604702F18041501E104E013903FB45
:1044E80000E007EB81010E4F0288013CA0EB0500BC
:1044F8004FEAD22316F803E002F01F03C2F3451275
:10450800F35CBA5C03EB0E4303EB022343F07F43F7
:1045180041F80439E8D1F0BD149A042060A30008DA
:1045280020A30008014B83E803007047149A042075
:1045380020F07F4070476FF07F40704710B550F80B
:10454800044B013A24F07F440C601944F7D110BDA4
:1045580010B50468013A184444F07F4441F8044B0C
:10456800F7D110BD7047704740F07F40704700009A
:10457800074B5A68013210B55A605A6B5C6A02EBF5
:10458800C0014C60002102F83010586210BD00BF15
:10459800E49B042010B50F2344680D4901EBC302C6
:1045A800126C94420A4A03D213F1FF33F6D210BDBB
:1045B8000F2B0CD81168091B11608168C06801B104
:1045C800486008B1016010BD02EBC303596410BD17
:1045D800E49B0420F8B5274E054608180C46F368F6
:1045E800B26B013B1344834205D34B591BB9436853
:1045F8001D44FFF7CFFFB36B9C420AD954F8047CE3
:10460800E71B3B682BB97B683C4638461D44FFF7DF
:10461800C1FF0F2306EBC302126C954203D213F1BC
:10462800FF33F7D223E00F2B21D80833601906EBAC
:10463800C302516800222461A16084E8240040F884
:10464800045C04F1080001B1486006EBC303A160F3
:10465800E260586033680749EA1896F829303260F2
:104668002BB9CB689B1A8A68934288BF8B6028460F
:10467800F8BD00BFE49B04202DE9F74F234F834684
:10468800FE68B846BC6B013E264494E828009BBBF4
:1046980061198E4230D954F805A0BAF1000F2BD019
:1046A8007B6B13F83A30012B26D1D8F82C302046F2
:1046B800D1F8049000930191FFF76CFF0199D8F8A5
:1046C8003420086802EBC002204654604A4605F0D0
:1046D800A9FA009B04EB090128469A4502BFD8F8BD
:1046E80034305B1BC8F83430FFF774FFBBF1000FA0
:1046F80001D0584505D24D462C44A642C5D80120C4
:1047080000E0002003B0BDE8F08F00BFE49B042068
:1047180028B1034BDA6B026002B15060D86370476E
:10472800E49B0420034B5B6B03EBC000406808303C
:10473800704700BFE49B0420054BDA690132DA6157
:104748005A6B12F83030013302F83030FFF7EABF05
:10475800E49B042003680A4930B553F8085C4C6BA5
:1047680014F83530012B03D9CA690AB1013ACA6174
:10477800013B04F8353000230360184630BD00BF04
:10478800E49B0420024B21F0030118605960704734
:104798001C9A042010B5044660B1074B5B6B03EB11
:1047A800C00359684868FFF715FF2046BDE8104068
:1047B800FFF7DEBE10BD00BFE49B04202DE9F041E9
:1047C800224CE36A3BB9224B9D685B680835B3FB12
:1047D800F5F5023503E023691D1D05EBD305E80057
:1047E80000F0C0F8804660B3616B226901EBC0033A
:1047F800E76AD2005E68174B08361B683046984750
:104808002269691E66631346C4F82C808B4205D260
:10481800013306EBC30040F8043CF7E706EBC30698
:104828004FF000083846C6F80480636862629B1A35
:1048380025612B4463603FB1FFF7ACFF4046BDE8FC
:10484800F0810120BDE8F081BDE8F081E49B0420FF
:104858001C9A04208C000020174A70B592F8283062
:1048680043BB012382F82830144B996811B9596861
:10487800890899605A2110261162002102EBC100B3
:1048880006FA01F501310C4C05641029F6D11968B6
:10489800012558680223A1632361A0F11403E06095
:1048A8000B4463635D6065626560FFF793FEFFF725
:1048B80085FF256370BD00BFE49B04201C9A04207B
:1048C8002DE9F0410746264EFFF7C6FF0337306C47
:1048D800F26B27F0030714460437874238BF0746B0
:1048E80034B154F8043C9F4223682CD01C46F7E7A7
:1048F800F368B26B02EB030858F8045CC5EB0805D3
:104908002B6833B12046FFF7B7FE58F8045CC5EBB7
:1049180008052B680BBB6B689F421EDC28461C1DD4
:10492800FFF738FEF3686868E41BDB1BC01B2C44E8
:10493800F36073693B44736102D02946FFF74AFE6E
:1049480044F8047C09E00BB161685960616801B101
:104958000B60A24201D12368F3632046BDE8F081D1
:10496800E49B04202DE9F843394E0446FFF774FF11
:10497800356C3368AC4224BF033424F00305344C4F
:104988000C35AB423ED3236B62689A420FD97368E9
:10499800776A013B4FEAC7087360736B03EB080241
:1049A80052687262012203F8372057B92AE0013BA6
:1049B8002363FFF703FF236B013323630028E6D04B
:1049C80020E00F2306EBC302126C95420CD213F1C0
:1049D800FF33F7D208E094682CB16268954214D985
:1049E800A268002AF7D101330F2B03D806EBC302C4
:1049F800526CF6E72846FFF73FFE0028E1D038461C
:104A0800FFF7B6FD0020BDE8F883D4F804902046EF
:104A1800336CC5EB09020C339A4238BF4D46FFF799
:104A2800B9FD736B61194D4598444FF00003C8F800
:104A3800044027606560A360246141F8045C03DAE0
:104A4800C5EB0900FFF7C6FD3846BDE8F88300BF8F
:104A5800E49B042008B1FFF785BF704773B506468D
:104A6800FFF7F8FF054660B1FFF766FE02AC064B9C
:104A7800324644F8040D00211B6898472046FFF78A
:104A880069FE284602B070BD9000002038B1038846
:104A98008B4202D843888B4201D28068F6E7704780
:104AA8002DE9F04F384C89B0064601462368B3F922
:104AB8002A80DB69D869FFF7E9FF002860D00588FC
:104AC80047684046751B07EBC50696F802A000F03C
:104AD800D5FED4F800C0814617F83520DCF81CE074
:104AE800DCF838309EF818B0BCF92410BCF9220064
:104AF8004FF0010C05937368CDF80CA004935B4646
:104B0800CDF808C09EF81BC0CDF804C09EF81AE086
:104B1800CDF800E001F028F82368DB69597E93F8A6
:104B280018A00791514520D9B8F1020F1DD093F86C
:104B38001BB000F082F8804600F078F800F002F927
:104B480023680799B3F924E0B3F92200DB6917F861
:104B58003550DA7E0BFB01E30BFB0AE105FB020291
:104B680000F0EAFE404600F0EDF8484600F086FE08
:104B780023687178DA69907E5A8C00FB01225A8486
:104B880009B0BDE8F08F00BF8000002038B50D4B9C
:104B980002460C4601461B68DD69E869FFF776FFA7
:104BA80070B10388D21A436803EBC2014878A97E22
:104BB80010FB01F024B113F8323011FB03F323602A
:104BC80038BD00BF8000002001230B80704708B566
:104BD800C069FFF75BFF003018BF012008BDC3B2F2
:104BE800CAB29A1AC0F3072392B210B514B2002CB5
:104BF800BCBF524214B2C1F30722090C9B1AC1EB85
:104C080010419BB289B21AB208B2002ABCBF5B42FB
:104C18001AB20028B8BF494202FB02F2B8BF08B274
:104C280004FB042280B200FB002010BD08B501F08F
:104C380089FABDE8084001F017B908B501F08AFA09
:104C4800BDE8084001F010B9014B1B68187C70479B
:104C58008000002004483523037034238370C37018
:104C680061230371704700BF6800002010B538B396
:104C780009B30AB3B2F90040B1F90030A342A8BFA2
:104C88002346B2F902400380B1F90230A342A8BF1B
:104C98002346B2F90440B2F906204380B1F9043042
:104CA800A342B8BF23468380B1F906309342B8BF08
:104CB8001346C38010BD11460B6803604B68436000
:104CC80010BD68B189B2038892B20B44038083880F
:104CD80019444388134481804380C3881A44C2809E
:104CE80070470000024B1B68588400209984704765
:104CF80080000020B0F90220B1F906309A4214DC95
:104D0800B1F90220B0F906309A420EDCB0F9002061
:104D1800B1F904309A4208DCB0F90400B1F9003066
:104D28008342CCBF0020012070470020704708B59F
:104D380001F050FB01F0FEFBBDE8084004F0B8B9F3
:104D480001F0D8B801F0DCB8034B1B68DA6900B190
:104D5800D8611046704700BF80000020094B0A4602
:104D680010B41880084B1980084B1B68597C084BF5
:104D780053F82130D9680C6A0146184623465DF875
:104D8800044B1847CC9C0420BC9C042080000020C5
:104D9800F49C042038B5194D0446194B04F1080158
:104DA80003672B691A1D9B631B64DA6303F108020E
:104DB80042615A7C134B53F82200C3681B6B984717
:104DC800114B63666B68E3612B69083363610123E8
:104DD8002376E37604F044FA0323A06484F8683069
:104DE8006FF07043E8682363636301F083F8A86891
:104DF80001F086F8054A064B1A6038BD700000209D
:104E0800B09A0420F49C0420F89F000810A0000821
:104E1800EC9C042070B50024094D0A4E74222146EA
:104E280028463368EC6798473368082221460648C5
:104E38009847064B1D61064B1C70064B1C6070BDE5
:104E4800309A042090000020F49C04207000002078
:104E5800DC9C0420B89C0420014B1860704700BFFC
:104E6800700000202DE9F3410446042016461F4631
:104E78000D4600F003FD134B804668461B69DA6C4B
:104E88001B6D144416441D441F44ADF80040ADF892
:104E98000460ADF80250ADF8067004F089F828B93E
:104EA800404600F0EBFC02B0BDE8F0813B463246DC
:104EB8002946204600F040FD03F0B8FF0028F5D150
:104EC800EEE700BF70000020002110B50846FFF78C
:104ED80009FF43F6FF7303491A460846BDE8104028
:104EE800FFF7C0BF01C0FFFFF0B51F4D85B0EB6FE6
:104EF800002B36D101236A466E46EB671B4B03F144
:104F080008071868083353F8041C1446BB4203C446
:104F18002246F6D1186899889B792060A371334698
:104F2800A180134C13F8012B04F8012B1A78002ADE
:104F3800F8D1FFF78FFE10F8013B224604F8013B39
:104F48000378002BF7D15370FEF702F9FEF776FFCE
:104F5800084B0948C5F8943005B0BDE8F04000F0AA
:104F6800D1B805B0F0BD00BF309A042000A00008F9
:104F7800B09A04201D4E0008C49A042090B583B04E
:104F880000AF534A524B1B6823F001031360514B87
:104F98001B68C3F30A0340F2494293420CBF012342
:104FA8000023DAB24B4B1B68C3F30A0340F25141AA
:104FB8008B420CBF01230023DBB21343DBB219463B
:104FC800444B1B68C3F30A0340F2524293420CBF9E
:104FD80001230023DBB20B43002B10D03E4B0122F0
:104FE8001A6000BF3C4B1B68002BFBD13B4B3C4A73
:104FF8001A603A4B1B683B4A934218D0FEE73A4B7B
:105008001B68C3F30A03B3F58A6F10D1374B01222B
:105018001A6000BF354B1B68002BFBD1344B304A5C
:105028001A60334B1B682F4A934200D0FEE7FFF704
:105038005BFF304B2E221A70FFF744F92E48FFF71A
:10504800A9FE00F0B1FE786001F01EF90346002BBE
:105058000CBF01230023DCB201F01CF90346002B2E
:105068000CBF01230023DBB22343DBB2002B09D0A2
:1050780001F0FEF8044601F0FEF803461946204602
:1050880001F0FCF800210020FFF768FE04F070F83A
:105098001A4B1B68002B12D00DE0184B1B681B68BD
:1050A800002B03D0154B1B681B689847134B1B68D4
:1050B8005B68124A1360114B1B68002BEDD1104B33
:1050C80001221A707B6818460C37BD4690BD00BF98
:1050D800002000E0002004E00830024000300240D8
:1050E800C2A507F4CDB5E8B50010005C084C02581D
:1050F800004C0258AC9C0420309A0420A89A042042
:10510800D49C042080B483B000AF7860064B1A6842
:105118007B685A60044A7B68136000BF0C37BD4641
:105128005DF8047B704700BFA49A042080B582B064
:1051380000AF7860054B1B68002B03D0034B1B683E
:105148007868984700BF0837BD4680BDB89C0420E2
:10515800012809DC054B53F8200020B1C3681B68FF
:105168001BB10068F9E7704700207047F49C0420E1
:10517800FFF7CEBA012BF8B506460D4617461C4672
:1051880001DD0020F8BD1C20FFF79AFB0028F8D0AD
:105198000DB1056109E0094B53F8241029B10B68DA
:1051A8000BB11946FBE70B69036100238461878211
:1051B800C660036043608360F8BD00BFF49C0420B0
:1051C80081690A4A52F821309842036804D142F8AA
:1051D80021300BB100225A60426802B113600368A3
:1051E80003B15A600023036043607047F49C0420B5
:1051F80030B508B9012030BD8469012CFADC1B4B9D
:105208001A789442A4BF621C1A70194A52F82430C2
:1052180015461BB942F82400184630BD5A680AB131
:105228001346FBE7C2681268D9680968914203DD32
:105238001B68002BF8D1DDE709D1818A012906D145
:10524800196821B10B46C96809688A42F8DD5A68AD
:1052580012B11060426001E045F82400586098429D
:1052680008BF00230360002030BD00BFA69C0420B7
:10527800F49C042038B51D46FFF77CFF044648B16E
:10528800FFF7B6FFE3681B6823B9034B16351B68A5
:1052980043F82540204638BD800000202DE9F04F16
:1052A800054685B000287FD0414C04F04FF90746E9
:1052B8002368A146B3F9228004F030F9226886B247
:1052C800938C9B1B93842B78002B61D047F6FF713E
:1052D800284604F0A3F901468246284604F0C8F996
:1052E8002268938D03F00303012B04D0022B04D111
:1052F80090FBF3F302E0034600E00023518C1FFA11
:1053080080FB2846CB1A9BB219B25184ADF808101D
:105318000BF1FF31B2F924200B445146ADF80A20B5
:10532800013AADF80C30BBB21A440193ADF80E2027
:1053380002AA04F0CDF92268BDF80A102846918423
:10534800514600F031F92A5C05EB000E019B0A2A50
:1053580001D00D2A12D12268918D01F00301013983
:1053680001298ABF118CA2F8228051849EF800106E
:105378000A290AD1918C0B44938406E0BDF80800F1
:10538800D9F800308344A3F822B09EF8003043B91E
:1053980023689A8C16449A8D22F003029E849A857B
:1053A80002E00EF101058EE705B0BDE8F08F00BF01
:1053B80080000020024B1B6859849A84FFF76EBF57
:1053C8008000002038B50E4C08220E4D00212046E2
:1053D8002B68984708222B680021A01898472B684B
:1053E8000822002104F1100098472B6808220021A8
:1053F80004F1180098470022034B1A6038BD00BF1B
:10540800CC9A042090000020A89C0420F7B51749E6
:105418000B6A002B164B0CBF064600269D57012D24
:1054280021DD01EB86031A69541C1C61DAB951F8B5
:10543800267011469C689A680132AA4208BF0A463B
:10544800BA429A601646F6D0FFF782FE019050B134
:10545800C368212101A85B6A9847034618B1324600
:1054680021460198984703B0F0BD00BFCC9A0420AC
:10547800A49C0420144B1A6A002A144A73B50CBF62
:105488000446002405461257012A1ADD03EB84045A
:105498002369013B2361A3B90120A840FFF746FE19
:1054A800A6682846A661FFF753FE019048B1C36875
:1054B800222101A85B6A9847034610B1314601983A
:1054C800984702B070BD00BFCC9A0420A49C042069
:1054D800084B1A6A002A18BF002003EB800210B597
:1054E8009469002CA2BF43F820104FF0FF3393615A
:1054F80010BD00BFCC9A042070B50A4C05460E4674
:10550800636A2BB92046084B40F8243FFFF7FAFDA1
:10551800236A002B054B18BF0025012EB8BF0126B2
:105528005E5570BDCC9A0420CD530008A49C04207D
:10553800024B1A6802B9186000F052B8F89A0420B1
:1055480038B50D46144600F065FF10B100232B60F6
:10555800236038BD70B5084D012804462B685E7C71
:1055680008D8FFF7F5FD28B12B685C74FFF7DFFB5F
:10557800024B1C60304670BD80000020389D04201E
:10558800F8B5084E05460468336820461B689847F6
:105598003368074620465B689847204428603846A9
:1055A800F8BD00BFEC9C0420F8B506460D46002463
:1055B800054F3DB13B683046013D5B68984706445E
:1055C8000444F6E72046F8BDEC9C042000787047B8
:1055D80001207047012070470170012070470000CA
:1055E800024B1B6803B11847704700BF589B042043
:1055F8002DE9F04F87B006460F4690469DF850308B
:105608000493129B9D00109B05EB830303930023D7
:105618000193174B139A0199914226D0DDF84890CF
:10562800C246B34602975BF8040B0499020E029C2B
:1056380040F07F4005934A43FF21B2FBF1F254F852
:10564800041BD2B202941C68A047B9F1010940F0CA
:105658007F40059B4AF8040BE5D1039A2E44A844E1
:105668001744019A01320192D4E707B0BDE8F08FE0
:10567800840000200B0E4FEA106302FB03F24FF088
:10568800FF0308BF20F07F41B2FBF3F230B5C0F34F
:1056980007249D1A00F0FF1044F080730C0A04F0F0
:1056A800FF146C4302FB034401F0FF13424304F070
:1056B800FF2405FB0321090A01F0FF10204330BD38
:1056C800024BDA69D8611046704700BF609B04201E
:1056D800024B5A6858601046704700BF840000208B
:1056E80010B5064B064C20B119B120600020196096
:1056F80010BD0022012022601A6010BD049D042004
:10570800089D0420B1F90030B0F900209A42B0F9A0
:105718000220B8BF0380B1F902309A42B0F90420E0
:10572800B8BF4380B1F904309A42B0F90620C8BF27
:105738008380B1F906309A42C8BFC380704770B5FC
:10574800B1F900300646B2F90050B1F904409D4263
:10575800B8BF1D46B1F902300580B2F90200834294
:10576800B8BF0346B2F9040084427380A8BF044658
:10577800B2F90600B1F90620B4808242A8BF0246F9
:10578800A542F28004DC9342CCBF0020012070BD0A
:10579800002070BDC9B2034670B52AB19C0703D07A
:1057A80003F8011B013AF8E7950801D11A441AE0F9
:1057B8004FF0013402F003024C43032D1E4603F15F
:1057C800100309DD43F8104C043D43F80C4C43F832
:1057D800084C43F8044CF0E706EB85039E42E5D0FD
:1057E80046F8044BFAE7934202D003F8011BFAE7A4
:1057F80070BD70B5840742BF02F1FF3201800230EC
:10580800540823D0032C234601EB014502D800EBB2
:10581800830316E000F110032646043E43F8105CAB
:1058280043F80C5C1033032E43F8185C43F8145CFF
:10583800F3DC043CA3085E1CA4EB830300EB061016
:10584800E5E7984202D040F8045BFAE7D30748BF7F
:10585800018070BD084B1B6870B51A7C82EA000194
:10586800490705D59C6BD96B25680E6826600D60C5
:105878001874104670BD00BF80000020014B1B68E3
:105888009B68184794000020154B0A461B68B3F91B
:105898000A10914230B4044620DCB3F90E108A4253
:1058A8001CDCB3F90810814218DCB3F90C108842EB
:1058B80014DC197C587C11F0010F0A4951F82000BA
:1058C80004D0C3682146DB6930BC1847C168DB6B6C
:1058D8008D6921461B68AC4630BC604730BC7047B8
:1058E80080000020F49C0420114B30B41C680D4645
:1058F800B4F90A308B4219DCB4F90E30994215DC40
:10590800B4F90810B4F90C308142B8BF014693428B
:10591800A8BF1346994209DC607C064A52F8200069
:10592800C26894682A46A44630BC604730BC7047B9
:1059380080000020F49C042073B5134C2468B4F94B
:105948000850B4F90C608542B8BF05469642A8BF16
:105958001646AE4215DBB4F90A208A42B8BF0A4699
:10596800B4F90E108B42A8BF0B469A4209DC607C42
:10597800064951F82000C168009333460C6929464E
:10598800A04702B070BD00BF80000020F49C042036
:105998002DE9F04F8FB0DFF8CCE10C461746189D83
:1059A800DEF800E00295199D079008951B9D01936C
:1059B8000395DDF868A01C9EDDF874B01E9DBEF14D
:1059C800000F02D0DEF8004054E0029B089A13430F
:1059D800012B54D1614B1868B0F90A20531A002BD7
:1059E8000ADD0199C3EB010EBEF1000F40F3B2804E
:1059F800039901FB036602E0DDF804E00A46019B17
:105A08001C44B0F90E30013CE41A002C05DDC4EB4F
:105A18000E0EBEF1000F40F39D80079BB0F90C10ED
:105A28003B44013B5B1A002BC8BFFF1A079B591B5D
:105A3800B0F90830994209DA5B1A1D44FF1A23F0BD
:105A4800070306EBE50605F007051944002F40F3A8
:105A58008180407C424B039C53F82000C368CDF8FA
:105A680074B01C951B961A94CDF864A0CDF860E02C
:105A78005C683B46A4460FB0BDE8F04F6047CAF1EA
:105A880008037546DFF8D4900B93029BCDF814E019
:105A9800013B0D93059B019A93425BDA089BE3183F
:105AA8000993013B0A93D9F800300A99B3F90A20FF
:105AB8008A4248DCB3F90E309C4244DC079B4FF025
:105AC800000806960093CDF81080049BBB423ADA92
